{"project/contracts/WitchWeb3.sol":{"WitchWeb3":{"abi":[{"inputs":[{"internalType":"string","name":"arcanaBaseURI","type":"string"},{"internalType":"string","name":"memeBaseURI","type":"string"},{"internalType":"string","name":"arcanaPlaceholderURI","type":"string"},{"internalType":"string","name":"memePlaceholderURI","type":"string"},{"internalType":"uint256","name":"arcanaPriceWei","type":"uint256"},{"internalType":"uint256","name":"memePriceWei","type":"uint256"},{"internalType":"address","name":"royaltyReceiver","type":"address"},{"internalType":"uint96","name":"royaltyBps","type":"uint96"}],"stateMutability":"nonpayable","type":"constructor"},{"inputs":[{"internalType":"uint256","name":"numerator","type":"uint256"},{"internalType":"uint256","name":"denominator","type":"uint256"}],"name":"ERC2981InvalidDefaultRoyalty","type":"error"},{"inputs":[{"internalType":"address","name":"receiver","type":"address"}],"name":"ERC2981InvalidDefaultRoyaltyReceiver","type":"error"},{"inputs":[{"internalType":"uint256","name":"tokenId","type":"uint256"},{"internalType":"uint256","name":"numerator","type":"uint256"},{"internalType":"uint256","name":"denominator","type":"uint256"}],"name":"ERC2981InvalidTokenRoyalty","type":"error"},{"inputs":[{"internalType":"uint256","name":"tokenId","type":"uint256"},{"internalType":"address","name":"receiver","type":"address"}],"name":"ERC2981InvalidTokenRoyaltyReceiver","type":"error"},{"inputs":[],"name":"ERC721EnumerableForbiddenBatchMint","type":"error"},{"inputs":[{"internalType":"address","name":"sender","type":"address"},{"internalType":"uint256","name":"tokenId","type":"uint256"},{"internalType":"address","name":"owner","type":"address"}],"name":"ERC721IncorrectOwner","type":"error"},{"inputs":[{"internalType":"address","name":"operator","type":"address"},{"internalType":"uint256","name":"tokenId","type":"uint256"}],"name":"ERC721InsufficientApproval","type":"error"},{"inputs":[{"internalType":"address","name":"approver","type":"address"}],"name":"ERC721InvalidApprover","type":"error"},{"inputs":[{"internalType":"address","name":"operator","type":"address"}],"name":"ERC721InvalidOperator","type":"error"},{"inputs":[{"internalType":"address","name":"owner","type":"address"}],"name":"ERC721InvalidOwner","type":"error"},{"inputs":[{"internalType":"address","name":"receiver","type":"address"}],"name":"ERC721InvalidReceiver","type":"error"},{"inputs":[{"internalType":"address","name":"sender","type":"address"}],"name":"ERC721InvalidSender","type":"error"},{"inputs":[{"internalType":"uint256","name":"tokenId","type":"uint256"}],"name":"ERC721NonexistentToken","type":"error"},{"inputs":[{"internalType":"address","name":"owner","type":"address"},{"internalType":"uint256","name":"index","type":"uint256"}],"name":"ERC721OutOfBoundsIndex","type":"error"},{"inputs":[],"name":"EnforcedPause","type":"error"},{"inputs":[],"name":"ExpectedPause","type":"error"},{"inputs":[{"internalType":"address","name":"owner","type":"address"}],"name":"OwnableInvalidOwner","type":"error"},{"inputs":[{"internalType":"address","name":"account","type":"address"}],"name":"OwnableUnauthorizedAccount","type":"error"},{"inputs":[],"name":"ReentrancyGuardReentrantCall","type":"error"},{"anonymous":false,"inputs":[{"indexed":true,"internalType":"address","name":"owner","type":"address"},{"indexed":true,"internalType":"address","name":"approved","type":"address"},{"indexed":true,"internalType":"uint256","name":"tokenId","type":"uint256"}],"name":"Approval","type":"event"},{"anonymous":false,"inputs":[{"indexed":true,"internalType":"address","name":"owner","type":"address"},{"indexed":true,"internalType":"address","name":"operator","type":"address"},{"indexed":false,"internalType":"bool","name":"approved","type":"bool"}],"name":"ApprovalForAll","type":"event"},{"anonymous":false,"inputs":[{"indexed":true,"internalType":"uint256","name":"deckId","type":"uint256"},{"indexed":false,"internalType":"string","name":"name","type":"string"},{"indexed":false,"internalType":"string","name":"baseURI","type":"string"},{"indexed":false,"internalType":"uint256","name":"priceWei","type":"uint256"}],"name":"DeckAdded","type":"event"},{"anonymous":false,"inputs":[{"indexed":true,"internalType":"uint256","name":"deckId","type":"uint256"},{"indexed":false,"internalType":"bool","name":"revealed","type":"bool"},{"indexed":false,"internalType":"string","name":"placeholderURI","type":"string"}],"name":"DeckRevealSet","type":"event"},{"anonymous":false,"inputs":[{"indexed":true,"internalType":"uint256","name":"deckId","type":"uint256"},{"indexed":false,"internalType":"string","name":"baseURI","type":"string"},{"indexed":false,"internalType":"bool","name":"active","type":"bool"},{"indexed":false,"internalType":"uint256","name":"priceWei","type":"uint256"}],"name":"DeckUpdated","type":"event"},{"anonymous":false,"inputs":[{"indexed":false,"internalType":"uint256","name":"maxPerTx","type":"uint256"},{"indexed":false,"internalType":"uint256","name":"maxPerWallet","type":"uint256"}],"name":"LimitsUpdated","type":"event"},{"anonymous":false,"inputs":[{"indexed":true,"internalType":"address","name":"previousOwner","type":"address"},{"indexed":true,"internalType":"address","name":"newOwner","type":"address"}],"name":"OwnershipTransferred","type":"event"},{"anonymous":false,"inputs":[{"indexed":false,"internalType":"address","name":"account","type":"address"}],"name":"Paused","type":"event"},{"anonymous":false,"inputs":[{"indexed":true,"internalType":"address","name":"minter","type":"address"},{"indexed":true,"internalType":"uint256","name":"deckId","type":"uint256"},{"indexed":false,"internalType":"uint256","name":"tokenId","type":"uint256"},{"indexed":false,"internalType":"uint256","name":"numberInDeck","type":"uint256"}],"name":"TokenMinted","type":"event"},{"anonymous":false,"inputs":[{"indexed":true,"internalType":"address","name":"from","type":"address"},{"indexed":true,"internalType":"address","name":"to","type":"address"},{"indexed":true,"internalType":"uint256","name":"tokenId","type":"uint256"}],"name":"Transfer","type":"event"},{"anonymous":false,"inputs":[{"indexed":false,"internalType":"address","name":"account","type":"address"}],"name":"Unpaused","type":"event"},{"anonymous":false,"inputs":[{"indexed":false,"internalType":"address","name":"to","type":"address"},{"indexed":false,"internalType":"uint256","name":"amount","type":"uint256"}],"name":"Withdrawn","type":"event"},{"inputs":[],"name":"CARDS_PER_DECK","outputs":[{"internalType":"uint256","name":"","type":"uint256"}],"stateMutability":"view","type":"function"},{"inputs":[{"internalType":"string","name":"name_","type":"string"},{"internalType":"string","name":"baseURI_","type":"string"},{"internalType":"string","name":"placeholderURI_","type":"string"},{"internalType":"bool","name":"active_","type":"bool"},{"internalType":"bool","name":"revealed_","type":"bool"},{"internalType":"uint256","name":"priceWei_","type":"uint256"}],"name":"addDeck","outputs":[{"internalType":"uint256","name":"","type":"uint256"}],"stateMutability":"nonpayable","type":"function"},{"inputs":[{"internalType":"address","name":"to","type":"address"},{"internalType":"uint256","name":"tokenId","type":"uint256"}],"name":"approve","outputs":[],"stateMutability":"nonpayable","type":"function"},{"inputs":[{"internalType":"address","name":"owner","type":"address"}],"name":"balanceOf","outputs":[{"internalType":"uint256","name":"","type":"uint256"}],"stateMutability":"view","type":"function"},{"inputs":[],"name":"deckCount","outputs":[{"internalType":"uint256","name":"","type":"uint256"}],"stateMutability":"view","type":"function"},{"inputs":[{"internalType":"uint256","name":"","type":"uint256"}],"name":"decks","outputs":[{"internalType":"string","name":"name","type":"string"},{"internalType":"string","name":"baseURI","type":"string"},{"internalType":"string","name":"placeholderURI","type":"string"},{"internalType":"bool","name":"revealed","type":"bool"},{"internalType":"bool","name":"active","type":"bool"},{"internalType":"uint256","name":"minted","type":"uint256"},{"internalType":"uint256","name":"priceWei","type":"uint256"}],"stateMutability":"view","type":"function"},{"inputs":[{"internalType":"uint256","name":"tokenId","type":"uint256"}],"name":"getApproved","outputs":[{"internalType":"address","name":"","type":"address"}],"stateMutability":"view","type":"function"},{"inputs":[{"internalType":"address","name":"owner","type":"address"},{"internalType":"address","name":"operator","type":"address"}],"name":"isApprovedForAll","outputs":[{"internalType":"bool","name":"","type":"bool"}],"stateMutability":"view","type":"function"},{"inputs":[],"name":"maxPerTx","outputs":[{"internalType":"uint256","name":"","type":"uint256"}],"stateMutability":"view","type":"function"},{"inputs":[],"name":"maxPerWallet","outputs":[{"internalType":"uint256","name":"","type":"uint256"}],"stateMutability":"view","type":"function"},{"inputs":[{"internalType":"uint256","name":"deckId","type":"uint256"},{"internalType":"uint256","name":"amount","type":"uint256"}],"name":"mintFromDeck","outputs":[],"stateMutability":"payable","type":"function"},{"inputs":[{"internalType":"uint256","name":"","type":"uint256"},{"internalType":"address","name":"","type":"address"}],"name":"mintedByWalletInDeck","outputs":[{"internalType":"uint256","name":"","type":"uint256"}],"stateMutability":"view","type":"function"},{"inputs":[],"name":"name","outputs":[{"internalType":"string","name":"","type":"string"}],"stateMutability":"view","type":"function"},{"inputs":[],"name":"owner","outputs":[{"internalType":"address","name":"","type":"address"}],"stateMutability":"view","type":"function"},{"inputs":[{"internalType":"uint256","name":"tokenId","type":"uint256"}],"name":"ownerOf","outputs":[{"internalType":"address","name":"","type":"address"}],"stateMutability":"view","type":"function"},{"inputs":[],"name":"pause","outputs":[],"stateMutability":"nonpayable","type":"function"},{"inputs":[],"name":"paused","outputs":[{"internalType":"bool","name":"","type":"bool"}],"stateMutability":"view","type":"function"},{"inputs":[],"name":"renounceOwnership","outputs":[],"stateMutability":"nonpayable","type":"function"},{"inputs":[{"internalType":"uint256","name":"tokenId","type":"uint256"},{"internalType":"uint256","name":"salePrice","type":"uint256"}],"name":"royaltyInfo","outputs":[{"internalType":"address","name":"receiver","type":"address"},{"internalType":"uint256","name":"amount","type":"uint256"}],"stateMutability":"view","type":"function"},{"inputs":[{"internalType":"address","name":"from","type":"address"},{"internalType":"address","name":"to","type":"address"},{"internalType":"uint256","name":"tokenId","type":"uint256"}],"name":"safeTransferFrom","outputs":[],"stateMutability":"nonpayable","type":"function"},{"inputs":[{"internalType":"address","name":"from","type":"address"},{"internalType":"address","name":"to","type":"address"},{"internalType":"uint256","name":"tokenId","type":"uint256"},{"internalType":"bytes","name":"data","type":"bytes"}],"name":"safeTransferFrom","outputs":[],"stateMutability":"nonpayable","type":"function"},{"inputs":[{"internalType":"address","name":"operator","type":"address"},{"internalType":"bool","name":"approved","type":"bool"}],"name":"setApprovalForAll","outputs":[],"stateMutability":"nonpayable","type":"function"},{"inputs":[{"internalType":"uint256","name":"deckId","type":"uint256"},{"internalType":"bool","name":"active_","type":"bool"}],"name":"setDeckActive","outputs":[],"stateMutability":"nonpayable","type":"function"},{"inputs":[{"internalType":"uint256","name":"deckId","type":"uint256"},{"internalType":"string","name":"newBaseURI","type":"string"}],"name":"setDeckBaseURI","outputs":[],"stateMutability":"nonpayable","type":"function"},{"inputs":[{"internalType":"uint256","name":"deckId","type":"uint256"},{"internalType":"string","name":"uri","type":"string"}],"name":"setDeckPlaceholder","outputs":[],"stateMutability":"nonpayable","type":"function"},{"inputs":[{"internalType":"uint256","name":"deckId","type":"uint256"},{"internalType":"uint256","name":"priceWei_","type":"uint256"}],"name":"setDeckPrice","outputs":[],"stateMutability":"nonpayable","type":"function"},{"inputs":[{"internalType":"uint256","name":"deckId","type":"uint256"},{"internalType":"bool","name":"revealed_","type":"bool"}],"name":"setDeckReveal","outputs":[],"stateMutability":"nonpayable","type":"function"},{"inputs":[{"internalType":"uint256","name":"newMaxPerTx","type":"uint256"},{"internalType":"uint256","name":"newMaxPerWallet","type":"uint256"}],"name":"setLimits","outputs":[],"stateMutability":"nonpayable","type":"function"},{"inputs":[{"internalType":"bytes4","name":"interfaceId","type":"bytes4"}],"name":"supportsInterface","outputs":[{"internalType":"bool","name":"","type":"bool"}],"stateMutability":"view","type":"function"},{"inputs":[],"name":"symbol","outputs":[{"internalType":"string","name":"","type":"string"}],"stateMutability":"view","type":"function"},{"inputs":[{"internalType":"uint256","name":"index","type":"uint256"}],"name":"tokenByIndex","outputs":[{"internalType":"uint256","name":"","type":"uint256"}],"stateMutability":"view","type":"function"},{"inputs":[{"internalType":"uint256","name":"","type":"uint256"}],"name":"tokenNumberInDeck","outputs":[{"internalType":"uint256","name":"","type":"uint256"}],"stateMutability":"view","type":"function"},{"inputs":[{"internalType":"address","name":"owner","type":"address"},{"internalType":"uint256","name":"index","type":"uint256"}],"name":"tokenOfOwnerByIndex","outputs":[{"internalType":"uint256","name":"","type":"uint256"}],"stateMutability":"view","type":"function"},{"inputs":[{"internalType":"uint256","name":"","type":"uint256"}],"name":"tokenToDeck","outputs":[{"internalType":"uint256","name":"","type":"uint256"}],"stateMutability":"view","type":"function"},{"inputs":[{"internalType":"uint256","name":"tokenId","type":"uint256"}],"name":"tokenURI","outputs":[{"internalType":"string","name":"","type":"string"}],"stateMutability":"view","type":"function"},{"inputs":[],"name":"totalSupply","outputs":[{"internalType":"uint256","name":"","type":"uint256"}],"stateMutability":"view","type":"function"},{"inputs":[{"internalType":"address","name":"from","type":"address"},{"internalType":"address","name":"to","type":"address"},{"internalType":"uint256","name":"tokenId","type":"uint256"}],"name":"transferFrom","outputs":[],"stateMutability":"nonpayable","type":"function"},{"inputs":[{"internalType":"address","name":"newOwner","type":"address"}],"name":"transferOwnership","outputs":[],"stateMutability":"nonpayable","type":"function"},{"inputs":[],"name":"unpause","outputs":[],"stateMutability":"nonpayable","type":"function"},{"inputs":[{"internalType":"address payable","name":"to","type":"address"}],"name":"withdraw","outputs":[],"stateMutability":"nonpayable","type":"function"}],"evm":{"bytecode":{"linkReferences":{},"object":"60806040526003600e556005600f55600160155534801561001e575f5ffd5b5060405161349a38038061349a83398101604081905261003d91610449565b336040518060400160405280600981526020016857697463685765623360b81b8152506040518060400160405280600381526020016257335760e81b815250815f908161008a91906105bd565b50600161009782826105bd565b5050506001600160a01b0381166100c857604051631e4fbdf760e01b81525f60048201526024015b60405180910390fd5b6100d18161015d565b506001600d8190555061011060405180604001604052806006815260200165417263616e6160d01b815250898889515f146001896101ae60201b60201c565b50610145604051806040016040528060048152602001634d656d6560e01b815250888788515f146001886101ae60201b60201c565b5061015082826102d9565b50505050505050506106ff565b600c80546001600160a01b038381166001600160a01b0319831681179093556040519116919082907f8be0079c531659141344cd1fd0a4f28419497f9722a3daafe3b4186f6b6457e0905f90a35050565b5f600160105f8282546101c19190610677565b90915550506040805160e0810182528881526020808201899052818301889052861515606083015285151560808301525f60a0830181905260c0830186905260105481526011909152919091208151819061021c90826105bd565b506020820151600182019061023190826105bd565b506040820151600282019061024690826105bd565b506060820151600382018054608085015115156101000261ff00199315159390931661ffff199091161791909117905560a0820151600482015560c0909101516005909101556010546040517fef7709c4280301e83496c7ce22108cb27b84de2fab81bc6de1470b81f0539661906102c3908a908a9087906106ca565b60405180910390a2506010549695505050505050565b6127106001600160601b03821681101561031857604051636f483d0960e01b81526001600160601b0383166004820152602481018290526044016100bf565b6001600160a01b03831661034157604051635b6cc80560e11b81525f60048201526024016100bf565b50604080518082019091526001600160a01b039092168083526001600160601b039091166020909201829052600160a01b90910217600a55565b634e487b7160e01b5f52604160045260245ffd5b5f82601f83011261039e575f5ffd5b81516001600160401b038111156103b7576103b761037b565b604051601f8201601f19908116603f011681016001600160401b03811182821017156103e5576103e561037b565b6040528181528382016020018510156103fc575f5ffd5b8160208501602083015e5f918101602001919091529392505050565b80516001600160a01b038116811461042e575f5ffd5b919050565b80516001600160601b038116811461042e575f5ffd5b5f5f5f5f5f5f5f5f610100898b031215610461575f5ffd5b88516001600160401b03811115610476575f5ffd5b6104828b828c0161038f565b60208b015190995090506001600160401b0381111561049f575f5ffd5b6104ab8b828c0161038f565b60408b015190985090506001600160401b038111156104c8575f5ffd5b6104d48b828c0161038f565b60608b015190975090506001600160401b038111156104f1575f5ffd5b6104fd8b828c0161038f565b60808b015160a08c01519197509550935061051c905060c08a01610418565b915061052a60e08a01610433565b90509295985092959890939650565b600181811c9082168061054d57607f821691505b60208210810361056b57634e487b7160e01b5f52602260045260245ffd5b50919050565b601f8211156105b857805f5260205f20601f840160051c810160208510156105965750805b601f840160051c820191505b818110156105b5575f81556001016105a2565b50505b505050565b81516001600160401b038111156105d6576105d661037b565b6105ea816105e48454610539565b84610571565b6020601f82116001811461061c575f83156106055750848201515b5f19600385901b1c1916600184901b1784556105b5565b5f84815260208120601f198516915b8281101561064b578785015182556020948501946001909201910161062b565b508482101561066857868401515f19600387901b60f8161c191681555b50505050600190811b01905550565b8082018082111561069657634e487b7160e01b5f52601160045260245ffd5b92915050565b5f81518084528060208401602086015e5f602082860101526020601f19601f83011685010191505092915050565b606081525f6106dc606083018661069c565b82810360208401526106ee818661069c565b915050826040830152949350505050565b612d8e8061070c5f395ff3fe608060405260043610610233575f3560e01c80636352211e11610129578063a090195d116100a8578063c7efdd341161006d578063c7efdd34146106ab578063c87b56dd146106ca578063e985e9c5146106e9578063f2fde38b14610708578063f968adbe14610727575f5ffd5b8063a090195d14610609578063a22cb4651461063b578063b88d4fde1461065a578063bfd1e24914610679578063c4590d3f1461068c575f5ffd5b80638456cb59116100ee5780638456cb59146105865780638da5cb5b1461059a57806391d7c67f146105b757806395d44510146105d657806395d89b41146105f5575f5ffd5b80636352211e146104ea57806370a0823114610509578063715018a61461052857806371da92d71461053c5780637d1ac3c81461055b575f5ffd5b80632f745c59116101b55780634f6ccce71161017a5780634f6ccce71461044f5780634f80f1c41461046e57806351cff8d9146104825780635c975abb146104a1578063625fcd6c146104bf575f5ffd5b80632f745c59146103b257806330b82402146103d15780633f4ba83a1461040757806342842e0e1461041b578063453c23101461043a575f5ffd5b806322872f29116101fb57806322872f291461030257806323b872dd146103175780632a55205a146103365780632c7667b7146103745780632f32e2aa14610393575f5ffd5b806301ffc9a71461023757806306fdde031461026b578063081812fc1461028c578063095ea7b3146102c357806318160ddd146102e4575b5f5ffd5b348015610242575f5ffd5b50610256610251366004612425565b61073c565b60405190151581526020015b60405180910390f35b348015610276575f5ffd5b5061027f61074c565b6040516102629190612475565b348015610297575f5ffd5b506102ab6102a6366004612487565b6107db565b6040516001600160a01b039091168152602001610262565b3480156102ce575f5ffd5b506102e26102dd3660046124b2565b610802565b005b3480156102ef575f5ffd5b506008545b604051908152602001610262565b34801561030d575f5ffd5b506102f460105481565b348015610322575f5ffd5b506102e26103313660046124dc565b610811565b348015610341575f5ffd5b5061035561035036600461251a565b61089f565b604080516001600160a01b039093168352602083019190915201610262565b34801561037f575f5ffd5b506102f461038e36600461258c565b610924565b34801561039e575f5ffd5b506102e26103ad366004612656565b6109e4565b3480156103bd575f5ffd5b506102f46103cc3660046124b2565b610a58565b3480156103dc575f5ffd5b506102f46103eb366004612680565b601460209081525f928352604080842090915290825290205481565b348015610412575f5ffd5b506102e2610abb565b348015610426575f5ffd5b506102e26104353660046124dc565b610acd565b348015610445575f5ffd5b506102f4600f5481565b34801561045a575f5ffd5b506102f4610469366004612487565b610aec565b348015610479575f5ffd5b506102f4601581565b34801561048d575f5ffd5b506102e261049c3660046126ae565b610b41565b3480156104ac575f5ffd5b50600c54600160a01b900460ff16610256565b3480156104ca575f5ffd5b506102f46104d9366004612487565b60126020525f908152604090205481565b3480156104f5575f5ffd5b506102ab610504366004612487565b610c6c565b348015610514575f5ffd5b506102f46105233660046126ae565b610c76565b348015610533575f5ffd5b506102e2610cbb565b348015610547575f5ffd5b506102e26105563660046126c9565b610ccc565b348015610566575f5ffd5b506102f4610575366004612487565b60136020525f908152604090205481565b348015610591575f5ffd5b506102e2610d53565b3480156105a5575f5ffd5b50600c546001600160a01b03166102ab565b3480156105c2575f5ffd5b506102e26105d13660046126c9565b610d63565b3480156105e1575f5ffd5b506102e26105f0366004612656565b610dd1565b348015610600575f5ffd5b5061027f610e2f565b348015610614575f5ffd5b50610628610623366004612487565b610e3e565b6040516102629796959493929190612711565b348015610646575f5ffd5b506102e2610655366004612770565b611010565b348015610665575f5ffd5b506102e26106743660046127ae565b61101b565b6102e261068736600461251a565b611033565b348015610697575f5ffd5b506102e26106a636600461251a565b6113c0565b3480156106b6575f5ffd5b506102e26106c536600461251a565b611456565b3480156106d5575f5ffd5b5061027f6106e4366004612487565b6114b9565b3480156106f4575f5ffd5b5061025661070336600461288f565b611743565b348015610713575f5ffd5b506102e26107223660046126ae565b611770565b348015610732575f5ffd5b506102f4600e5481565b5f610746826117aa565b92915050565b60605f805461075a906128bb565b80601f0160208091040260200160405190810160405280929190818152602001828054610786906128bb565b80156107d15780601f106107a8576101008083540402835291602001916107d1565b820191905f5260205f20905b8154815290600101906020018083116107b457829003601f168201915b5050505050905090565b5f6107e5826117ce565b505f828152600460205260409020546001600160a01b0316610746565b61080d828233611806565b5050565b6001600160a01b03821661083f57604051633250574960e11b81525f60048201526024015b60405180910390fd5b5f61084b838333611813565b9050836001600160a01b0316816001600160a01b031614610899576040516364283d7b60e01b81526001600160a01b0380861660048301526024820184905282166044820152606401610836565b50505050565b5f828152600b6020526040812080548291906001600160a01b03811690600160a01b90046001600160601b0316816108f2575050600a546001600160a01b03811690600160a01b90046001600160601b03165b5f6127106109096001600160601b03841689612907565b610913919061291e565b9295509193505050505b9250929050565b5f61092d611827565b6109d68a8a8080601f0160208091040260200160405190810160405280939291908181526020018383808284375f9201919091525050604080516020601f8e018190048102820181019092528c815292508c91508b90819084018382808284375f9201919091525050604080516020601f8d018190048102820181019092528b815292508b91508a90819084018382808284375f920191909152508992508a9150889050611854565b9a9950505050505050505050565b6109ec611827565b5f828152601160205260409081902060038101805461ff001916610100851515021790556005810154915184927f897964203ef510aaa18434c4c580750233798a36858e203b859c67f83af9c1ba92610a4c9260019091019186916129bc565b60405180910390a25050565b5f610a6283610c76565b8210610a935760405163295f44f760e21b81526001600160a01b038416600482015260248101839052604401610836565b506001600160a01b03919091165f908152600660209081526040808320938352929052205490565b610ac3611827565b610acb61197f565b565b610ae783838360405180602001604052805f81525061101b565b505050565b5f610af660085490565b8210610b1e5760405163295f44f760e21b81525f600482015260248101839052604401610836565b60088281548110610b3157610b316129e0565b905f5260205f2001549050919050565b610b49611827565b610b516119d4565b4780610b8a5760405162461bcd60e51b81526020600482015260086024820152674e6f2066756e647360c01b6044820152606401610836565b5f826001600160a01b0316826040515f6040518083038185875af1925050503d805f8114610bd3576040519150601f19603f3d011682016040523d82523d5f602084013e610bd8565b606091505b5050905080610c1b5760405162461bcd60e51b815260206004820152600f60248201526e15da5d1a191c985dc819985a5b1959608a1b6044820152606401610836565b604080516001600160a01b0385168152602081018490527f7084f5476618d8e60b11ef0d7d3f06914655adb8793e28ff7f018d4c76d505d5910160405180910390a15050610c696001600d55565b50565b5f610746826117ce565b5f6001600160a01b038216610ca0576040516322718ad960e21b81525f6004820152602401610836565b506001600160a01b03165f9081526003602052604090205490565b610cc3611827565b610acb5f6119fe565b610cd4611827565b5f838152601160205260409020600101610cef828483612a38565b505f83815260116020526040908190206003810154600590910154915185927f897964203ef510aaa18434c4c580750233798a36858e203b859c67f83af9c1ba92610d469287928792610100900460ff1691612b1a565b60405180910390a2505050565b610d5b611827565b610acb611a4f565b610d6b611827565b5f838152601160205260409020600201610d86828483612a38565b505f838152601160205260409081902060030154905184917fae4223e82531f2b8bb0418e0b96986deea6dabaa8e46cd21a422a6b2d56ac1a891610d469160ff169086908690612b40565b610dd9611827565b5f828152601160205260409081902060038101805460ff1916841515179055905183917fae4223e82531f2b8bb0418e0b96986deea6dabaa8e46cd21a422a6b2d56ac1a891610a4c918591600290910190612b64565b60606001805461075a906128bb565b60116020525f9081526040902080548190610e58906128bb565b80601f0160208091040260200160405190810160405280929190818152602001828054610e84906128bb565b8015610ecf5780601f10610ea657610100808354040283529160200191610ecf565b820191905f5260205f20905b815481529060010190602001808311610eb257829003601f168201915b505050505090806001018054610ee4906128bb565b80601f0160208091040260200160405190810160405280929190818152602001828054610f10906128bb565b8015610f5b5780601f10610f3257610100808354040283529160200191610f5b565b820191905f5260205f20905b815481529060010190602001808311610f3e57829003601f168201915b505050505090806002018054610f70906128bb565b80601f0160208091040260200160405190810160405280929190818152602001828054610f9c906128bb565b8015610fe75780601f10610fbe57610100808354040283529160200191610fe7565b820191905f5260205f20905b815481529060010190602001808311610fca57829003601f168201915b50505060038401546004850154600590950154939460ff80831695610100909304169350915087565b61080d338383611a92565b611026848484610811565b6108993385858585611b30565b61103b611c58565b6110436119d4565b5f8211801561105457506010548211155b61108f5760405162461bcd60e51b815260206004820152600c60248201526b496e76616c6964206465636b60a01b6044820152606401610836565b5f811180156110a05750600e548111155b6110dd5760405162461bcd60e51b815260206004820152600e60248201526d125b9d985b1a5908185b5bdd5b9d60921b6044820152606401610836565b5f8281526011602052604090206003810154610100900460ff166111355760405162461bcd60e51b815260206004820152600f60248201526e4465636b206e6f742061637469766560881b6044820152606401610836565b60158282600401546111479190612b7e565b11156111815760405162461bcd60e51b8152602060048201526009602482015268111958dac8199d5b1b60ba1b6044820152606401610836565b600f545f8481526014602090815260408083203384529091529020546111a8908490612b7e565b11156111f65760405162461bcd60e51b815260206004820152601e60248201527f57616c6c6574206c696d697420657863656564656420666f72206465636b00006044820152606401610836565b5f8282600501546112079190612907565b90508034101561124c5760405162461bcd60e51b815260206004820152601060248201526f092dce6eaccccd2c6d2cadce8408aa8960831b6044820152606401610836565b5f5b8381101561131e57601580545f918261126683612b91565b9190505590505f846004015f815461127d90612b91565b91829055505f8381526012602090815260408083208b9055601382528083208490558a835260148252808320338452909152812080549293506001929091906112c7908490612b7e565b909155506112d790503383611c83565b6040805183815260208101839052889133917f10546b1a6f5245ff0ffa18c256b9e46859c585cbb473b453fcd4c2dc39ae08db910160405180910390a3505060010161124e565b50803411156113b4575f336113338334612ba9565b6040515f81818185875af1925050503d805f811461136c576040519150601f19603f3d011682016040523d82523d5f602084013e611371565b606091505b50509050806113b25760405162461bcd60e51b815260206004820152600d60248201526c1499599d5b990819985a5b1959609a1b6044820152606401610836565b505b505061080d6001600d55565b6113c8611827565b5f821180156113d657505f81115b61140f5760405162461bcd60e51b815260206004820152600a60248201526916995c9bc81b1a5b5a5d60b21b6044820152606401610836565b600e829055600f81905560408051838152602081018390527f4d4981437d0211f9e6843eb024d9ada1fa3a99514d4343d4aece106dd11524bb910160405180910390a15050565b61145e611827565b5f8281526011602052604090819020600581018390556003810154915184927f897964203ef510aaa18434c4c580750233798a36858e203b859c67f83af9c1ba92610a4c92600190910191610100900460ff169086906129bc565b60606114c4826117ce565b505f828152601260209081526040808320548084526011909252808320815160e081019092528054929392829082906114fc906128bb565b80601f0160208091040260200160405190810160405280929190818152602001828054611528906128bb565b80156115735780601f1061154a57610100808354040283529160200191611573565b820191905f5260205f20905b81548152906001019060200180831161155657829003601f168201915b5050505050815260200160018201805461158c906128bb565b80601f01602080910402602001604051908101604052809291908181526020018280546115b8906128bb565b80156116035780601f106115da57610100808354040283529160200191611603565b820191905f5260205f20905b8154815290600101906020018083116115e657829003601f168201915b5050505050815260200160028201805461161c906128bb565b80601f0160208091040260200160405190810160405280929190818152602001828054611648906128bb565b80156116935780601f1061166a57610100808354040283529160200191611693565b820191905f5260205f20905b81548152906001019060200180831161167657829003601f168201915b5050509183525050600382015460ff80821615156020840152610100909104161515604082015260048201546060808301919091526005909201546080909101528101519091501580156116eb57505f816040015151115b156116fb57604001519392505050565b5f848152601360209081526040909120549082015161171982611c9c565b60405160200161172a929190612bd3565b6040516020818303038152906040529350505050919050565b6001600160a01b039182165f90815260056020908152604080832093909416825291909152205460ff1690565b611778611827565b6001600160a01b0381166117a157604051631e4fbdf760e01b81525f6004820152602401610836565b610c69816119fe565b5f6001600160e01b0319821663152a902d60e11b1480610746575061074682611d2c565b5f818152600260205260408120546001600160a01b03168061074657604051637e27328960e01b815260048101849052602401610836565b610ae78383836001611d50565b5f61181f848484611e54565b949350505050565b600c546001600160a01b03163314610acb5760405163118cdaa760e01b8152336004820152602401610836565b5f600160105f8282546118679190612b7e565b90915550506040805160e0810182528881526020808201899052818301889052861515606083015285151560808301525f60a0830181905260c083018690526010548152601190915291909120815181906118c29082612bfd565b50602082015160018201906118d79082612bfd565b50604082015160028201906118ec9082612bfd565b506060820151600382018054608085015115156101000261ff00199315159390931661ffff199091161791909117905560a0820151600482015560c0909101516005909101556010546040517fef7709c4280301e83496c7ce22108cb27b84de2fab81bc6de1470b81f053966190611969908a908a908790612cb8565b60405180910390a2506010549695505050505050565b611987611f1f565b600c805460ff60a01b191690557f5db9ee0a495bf2e6ff9c91a7834c1ba4fdd244a5e8aa4e537bd38aeae4b073aa335b6040516001600160a01b03909116815260200160405180910390a1565b6002600d54036119f757604051633ee5aeb560e01b815260040160405180910390fd5b6002600d55565b600c80546001600160a01b038381166001600160a01b0319831681179093556040519116919082907f8be0079c531659141344cd1fd0a4f28419497f9722a3daafe3b4186f6b6457e0905f90a35050565b611a57611c58565b600c805460ff60a01b1916600160a01b1790557f62e78cea01bee320cd4e420270b5ea74000d11b0c9f74754ebdbfc544b05a2586119b73390565b6001600160a01b038216611ac457604051630b61174360e31b81526001600160a01b0383166004820152602401610836565b6001600160a01b038381165f81815260056020908152604080832094871680845294825291829020805460ff191686151590811790915591519182527f17307eab39ab6107e8899845ad3d59bd9653f200f220920489ca2b5937696c31910160405180910390a3505050565b6001600160a01b0383163b15611c5157604051630a85bd0160e11b81526001600160a01b0384169063150b7a0290611b72908890889087908790600401612ced565b6020604051808303815f875af1925050508015611bac575060408051601f3d908101601f19168201909252611ba991810190612d29565b60015b611c13573d808015611bd9576040519150601f19603f3d011682016040523d82523d5f602084013e611bde565b606091505b5080515f03611c0b57604051633250574960e11b81526001600160a01b0385166004820152602401610836565b805160208201fd5b6001600160e01b03198116630a85bd0160e11b14611c4f57604051633250574960e11b81526001600160a01b0385166004820152602401610836565b505b5050505050565b600c54600160a01b900460ff1615610acb5760405163d93c066560e01b815260040160405180910390fd5b61080d828260405180602001604052805f815250611f49565b60605f611ca883611f60565b60010190505f8167ffffffffffffffff811115611cc757611cc761279a565b6040519080825280601f01601f191660200182016040528015611cf1576020820181803683370190505b5090508181016020015b5f19016f181899199a1a9b1b9c1cb0b131b232b360811b600a86061a8153600a8504945084611cfb57509392505050565b5f6001600160e01b0319821663780e9d6360e01b1480610746575061074682612037565b8080611d6457506001600160a01b03821615155b15611e25575f611d73846117ce565b90506001600160a01b03831615801590611d9f5750826001600160a01b0316816001600160a01b031614155b8015611db25750611db08184611743565b155b15611ddb5760405163a9fbf51f60e01b81526001600160a01b0384166004820152602401610836565b8115611e235783856001600160a01b0316826001600160a01b03167f8c5be1e5ebec7d5bd14f71427d1e84f3dd0314c0f7b2291e5b200ac8c7c3b92560405160405180910390a45b505b50505f90815260046020526040902080546001600160a01b0319166001600160a01b0392909216919091179055565b5f5f611e61858585612086565b90506001600160a01b038116611ebd57611eb884600880545f838152600960205260408120829055600182018355919091527ff3f7a9fe364faab93b216da50a3214154f22a0a2b415b23a84c8169e8b636ee30155565b611ee0565b846001600160a01b0316816001600160a01b031614611ee057611ee08185612178565b6001600160a01b038516611efc57611ef7846121f5565b61181f565b846001600160a01b0316816001600160a01b03161461181f5761181f858561229c565b600c54600160a01b900460ff16610acb57604051638dfc202b60e01b815260040160405180910390fd5b611f5383836122ea565b610ae7335f858585611b30565b5f8072184f03e93ff9f4daa797ed6e38ed64bf6a1f0160401b8310611f9e5772184f03e93ff9f4daa797ed6e38ed64bf6a1f0160401b830492506040015b6d04ee2d6d415b85acef81000000008310611fca576d04ee2d6d415b85acef8100000000830492506020015b662386f26fc100008310611fe857662386f26fc10000830492506010015b6305f5e1008310612000576305f5e100830492506008015b612710831061201457612710830492506004015b60648310612026576064830492506002015b600a83106107465760010192915050565b5f6001600160e01b031982166380ac58cd60e01b148061206757506001600160e01b03198216635b5e139f60e01b145b8061074657506301ffc9a760e01b6001600160e01b0319831614610746565b5f828152600260205260408120546001600160a01b03908116908316156120b2576120b281848661234b565b6001600160a01b038116156120ec576120cd5f855f5f611d50565b6001600160a01b0381165f90815260036020526040902080545f190190555b6001600160a01b0385161561211a576001600160a01b0385165f908152600360205260409020805460010190555b5f8481526002602052604080822080546001600160a01b0319166001600160a01b0389811691821790925591518793918516917fddf252ad1be2c89b69c2b068fc378daa952ba7f163c4a11628f55a4df523b3ef91a4949350505050565b5f61218283610c76565b5f838152600760209081526040808320546001600160a01b03881684526006909252909120919250908183146121d7575f83815260208281526040808320548584528184208190558352600790915290208290555b5f938452600760209081526040808620869055938552525081205550565b6008545f9061220690600190612ba9565b5f838152600960205260408120546008805493945090928490811061222d5761222d6129e0565b905f5260205f2001549050806008838154811061224c5761224c6129e0565b5f91825260208083209091019290925582815260099091526040808220849055858252812055600880548061228357612283612d44565b600190038181905f5260205f20015f9055905550505050565b5f60016122a884610c76565b6122b29190612ba9565b6001600160a01b039093165f908152600660209081526040808320868452825280832085905593825260079052919091209190915550565b6001600160a01b03821661231357604051633250574960e11b81525f6004820152602401610836565b5f61231f83835f611813565b90506001600160a01b03811615610ae7576040516339e3563760e11b81525f6004820152602401610836565b6123568383836123af565b610ae7576001600160a01b03831661238457604051637e27328960e01b815260048101829052602401610836565b60405163177e802f60e01b81526001600160a01b038316600482015260248101829052604401610836565b5f6001600160a01b0383161580159061181f5750826001600160a01b0316846001600160a01b031614806123e857506123e88484611743565b8061181f5750505f908152600460205260409020546001600160a01b03908116911614919050565b6001600160e01b031981168114610c69575f5ffd5b5f60208284031215612435575f5ffd5b813561244081612410565b9392505050565b5f81518084528060208401602086015e5f602082860101526020601f19601f83011685010191505092915050565b602081525f6124406020830184612447565b5f60208284031215612497575f5ffd5b5035919050565b6001600160a01b0381168114610c69575f5ffd5b5f5f604083850312156124c3575f5ffd5b82356124ce8161249e565b946020939093013593505050565b5f5f5f606084860312156124ee575f5ffd5b83356124f98161249e565b925060208401356125098161249e565b929592945050506040919091013590565b5f5f6040838503121561252b575f5ffd5b50508035926020909101359150565b5f5f83601f84011261254a575f5ffd5b50813567ffffffffffffffff811115612561575f5ffd5b60208301915083602082850101111561091d575f5ffd5b80358015158114612587575f5ffd5b919050565b5f5f5f5f5f5f5f5f5f60c08a8c0312156125a4575f5ffd5b893567ffffffffffffffff8111156125ba575f5ffd5b6125c68c828d0161253a565b909a5098505060208a013567ffffffffffffffff8111156125e5575f5ffd5b6125f18c828d0161253a565b90985096505060408a013567ffffffffffffffff811115612610575f5ffd5b61261c8c828d0161253a565b909650945061262f905060608b01612578565b925061263d60808b01612578565b989b979a50959894979396929550909360a00135919050565b5f5f60408385031215612667575f5ffd5b8235915061267760208401612578565b90509250929050565b5f5f60408385031215612691575f5ffd5b8235915060208301356126a38161249e565b809150509250929050565b5f602082840312156126be575f5ffd5b81356124408161249e565b5f5f5f604084860312156126db575f5ffd5b83359250602084013567ffffffffffffffff8111156126f8575f5ffd5b6127048682870161253a565b9497909650939450505050565b60e081525f61272360e083018a612447565b8281036020840152612735818a612447565b905082810360408401526127498189612447565b96151560608401525050921515608084015260a083019190915260c0909101529392505050565b5f5f60408385031215612781575f5ffd5b823561278c8161249e565b915061267760208401612578565b634e487b7160e01b5f52604160045260245ffd5b5f5f5f5f608085870312156127c1575f5ffd5b84356127cc8161249e565b935060208501356127dc8161249e565b925060408501359150606085013567ffffffffffffffff8111156127fe575f5ffd5b8501601f8101871361280e575f5ffd5b803567ffffffffffffffff8111156128285761282861279a565b604051601f8201601f19908116603f0116810167ffffffffffffffff811182821017156128575761285761279a565b60405281815282820160200189101561286e575f5ffd5b816020840160208301375f6020838301015280935050505092959194509250565b5f5f604083850312156128a0575f5ffd5b82356128ab8161249e565b915060208301356126a38161249e565b600181811c908216806128cf57607f821691505b6020821081036128ed57634e487b7160e01b5f52602260045260245ffd5b50919050565b634e487b7160e01b5f52601160045260245ffd5b8082028115828204841417610746576107466128f3565b5f8261293857634e487b7160e01b5f52601260045260245ffd5b500490565b5f8154612949816128bb565b808552600182168015612963576001811461297f576129b3565b60ff1983166020870152602082151560051b87010193506129b3565b845f5260205f205f5b838110156129aa5781546020828a010152600182019150602081019050612988565b87016020019450505b50505092915050565b606081525f6129ce606083018661293d565b93151560208301525060400152919050565b634e487b7160e01b5f52603260045260245ffd5b601f821115610ae757805f5260205f20601f840160051c81016020851015612a195750805b601f840160051c820191505b81811015611c51575f8155600101612a25565b67ffffffffffffffff831115612a5057612a5061279a565b612a6483612a5e83546128bb565b836129f4565b5f601f841160018114612a95575f8515612a7e5750838201355b5f19600387901b1c1916600186901b178355611c51565b5f83815260208120601f198716915b82811015612ac45786850135825560209485019460019092019101612aa4565b5086821015612ae0575f1960f88860031b161c19848701351681555b505060018560011b0183555050505050565b81835281816020850137505f828201602090810191909152601f909101601f19169091010190565b606081525f612b2d606083018688612af2565b9315156020830152506040015292915050565b8315158152604060208201525f612b5b604083018486612af2565b95945050505050565b8215158152604060208201525f61181f604083018461293d565b80820180821115610746576107466128f3565b5f60018201612ba257612ba26128f3565b5060010190565b81810381811115610746576107466128f3565b5f81518060208401855e5f93019283525090919050565b5f612be7612be18386612bbc565b84612bbc565b64173539b7b760d91b8152600501949350505050565b815167ffffffffffffffff811115612c1757612c1761279a565b612c2b81612c2584546128bb565b846129f4565b6020601f821160018114612c5d575f8315612c465750848201515b5f19600385901b1c1916600184901b178455611c51565b5f84815260208120601f198516915b82811015612c8c5787850151825560209485019460019092019101612c6c565b5084821015612ca957868401515f19600387901b60f8161c191681555b50505050600190811b01905550565b606081525f612cca6060830186612447565b8281036020840152612cdc8186612447565b915050826040830152949350505050565b6001600160a01b03858116825284166020820152604081018390526080606082018190525f90612d1f90830184612447565b9695505050505050565b5f60208284031215612d39575f5ffd5b815161244081612410565b634e487b7160e01b5f52603160045260245ffdfea264697066735822122083c19dc70bba12469683dbdd5d25f6cfff4e4bcc5b4189b1ce810b2e85fe999564736f6c634300081b0033","opcodes":"PUSH1 0x80 PUSH1 0x40 MSTORE PUSH1 0x3 PUSH1 0xE SSTORE PUSH1 0x5 PUSH1 0xF SSTORE PUSH1 0x1 PUSH1 0x15 SSTORE CALLVALUE DUP1 ISZERO PUSH2 0x1E JUMPI PUSH0 PUSH0 REVERT JUMPDEST POP PUSH1 0x40 MLOAD PUSH2 0x349A CODESIZE SUB DUP1 PUSH2 0x349A DUP4 CODECOPY DUP2 ADD PUSH1 0x40 DUP2 SWAP1 MSTORE PUSH2 0x3D SWAP2 PUSH2 0x449 JUMP JUMPDEST CALLER PUSH1 0x40 MLOAD DUP1 PUSH1 0x40 ADD PUSH1 0x40 MSTORE DUP1 PUSH1 0x9 DUP2 MSTORE PUSH1 0x20 ADD PUSH9 0x576974636857656233 PUSH1 0xB8 SHL DUP2 MSTORE POP PUSH1 0x40 MLOAD DUP1 PUSH1 0x40 ADD PUSH1 0x40 MSTORE DUP1 PUSH1 0x3 DUP2 MSTORE PUSH1 0x20 ADD PUSH3 0x573357 PUSH1 0xE8 SHL DUP2 MSTORE POP DUP2 PUSH0 SWAP1 DUP2 PUSH2 0x8A SWAP2 SWAP1 PUSH2 0x5BD JUMP JUMPDEST POP PUSH1 0x1 PUSH2 0x97 DUP3 DUP3 PUSH2 0x5BD JUMP JUMPDEST POP POP POP PUSH1 0x1 PUSH1 0x1 PUSH1 0xA0 SHL SUB DUP2 AND PUSH2 0xC8 JUMPI PUSH1 0x40 MLOAD PUSH4 0x1E4FBDF7 PUSH1 0xE0 SHL DUP2 MSTORE PUSH0 PUSH1 0x4 DUP3 ADD MSTORE PUSH1 0x24 ADD JUMPDEST PUSH1 0x40 MLOAD DUP1 SWAP2 SUB SWAP1 REVERT JUMPDEST PUSH2 0xD1 DUP2 PUSH2 0x15D JUMP JUMPDEST POP PUSH1 0x1 PUSH1 0xD DUP2 SWAP1 SSTORE POP PUSH2 0x110 PUSH1 0x40 MLOAD DUP1 PUSH1 0x40 ADD PUSH1 0x40 MSTORE DUP1 PUSH1 0x6 DUP2 MSTORE PUSH1 0x20 ADD PUSH6 0x417263616E61 PUSH1 0xD0 SHL DUP2 MSTORE POP DUP10 DUP9 DUP10 MLOAD PUSH0 EQ PUSH1 0x1 DUP10 PUSH2 0x1AE PUSH1 0x20 SHL PUSH1 0x20 SHR JUMP JUMPDEST POP PUSH2 0x145 PUSH1 0x40 MLOAD DUP1 PUSH1 0x40 ADD PUSH1 0x40 MSTORE DUP1 PUSH1 0x4 DUP2 MSTORE PUSH1 0x20 ADD PUSH4 0x4D656D65 PUSH1 0xE0 SHL DUP2 MSTORE POP DUP9 DUP8 DUP9 MLOAD PUSH0 EQ PUSH1 0x1 DUP9 PUSH2 0x1AE PUSH1 0x20 SHL PUSH1 0x20 SHR JUMP JUMPDEST POP PUSH2 0x150 DUP3 DUP3 PUSH2 0x2D9 JUMP JUMPDEST POP POP POP POP POP POP POP POP PUSH2 0x6FF JUMP JUMPDEST PUSH1 0xC DUP1 SLOAD PUSH1 0x1 PUSH1 0x1 PUSH1 0xA0 SHL SUB DUP4 DUP2 AND PUSH1 0x1 PUSH1 0x1 PUSH1 0xA0 SHL SUB NOT DUP4 AND DUP2 OR SWAP1 SWAP4 SSTORE PUSH1 0x40 MLOAD SWAP2 AND SWAP2 SWAP1 DUP3 SWAP1 PUSH32 0x8BE0079C531659141344CD1FD0A4F28419497F9722A3DAAFE3B4186F6B6457E0 SWAP1 PUSH0 SWAP1 LOG3 POP POP JUMP JUMPDEST PUSH0 PUSH1 0x1 PUSH1 0x10 PUSH0 DUP3 DUP3 SLOAD PUSH2 0x1C1 SWAP2 SWAP1 PUSH2 0x677 JUMP JUMPDEST SWAP1 SWAP2 SSTORE POP POP PUSH1 0x40 DUP1 MLOAD PUSH1 0xE0 DUP2 ADD DUP3 MSTORE DUP9 DUP2 MSTORE PUSH1 0x20 DUP1 DUP3 ADD DUP10 SWAP1 MSTORE DUP2 DUP4 ADD DUP9 SWAP1 MSTORE DUP7 ISZERO ISZERO PUSH1 0x60 DUP4 ADD MSTORE DUP6 ISZERO ISZERO PUSH1 0x80 DUP4 ADD MSTORE PUSH0 PUSH1 0xA0 DUP4 ADD DUP2 SWAP1 MSTORE PUSH1 0xC0 DUP4 ADD DUP7 SWAP1 MSTORE PUSH1 0x10 SLOAD DUP2 MSTORE PUSH1 0x11 SWAP1 SWAP2 MSTORE SWAP2 SWAP1 SWAP2 KECCAK256 DUP2 MLOAD DUP2 SWAP1 PUSH2 0x21C SWAP1 DUP3 PUSH2 0x5BD JUMP JUMPDEST POP PUSH1 0x20 DUP3 ADD MLOAD PUSH1 0x1 DUP3 ADD SWAP1 PUSH2 0x231 SWAP1 DUP3 PUSH2 0x5BD JUMP JUMPDEST POP PUSH1 0x40 DUP3 ADD MLOAD PUSH1 0x2 DUP3 ADD SWAP1 PUSH2 0x246 SWAP1 DUP3 PUSH2 0x5BD JUMP JUMPDEST POP PUSH1 0x60 DUP3 ADD MLOAD PUSH1 0x3 DUP3 ADD DUP1 SLOAD PUSH1 0x80 DUP6 ADD MLOAD ISZERO ISZERO PUSH2 0x100 MUL PUSH2 0xFF00 NOT SWAP4 ISZERO ISZERO SWAP4 SWAP1 SWAP4 AND PUSH2 0xFFFF NOT SWAP1 SWAP2 AND OR SWAP2 SWAP1 SWAP2 OR SWAP1 SSTORE PUSH1 0xA0 DUP3 ADD MLOAD PUSH1 0x4 DUP3 ADD SSTORE PUSH1 0xC0 SWAP1 SWAP2 ADD MLOAD PUSH1 0x5 SWAP1 SWAP2 ADD SSTORE PUSH1 0x10 SLOAD PUSH1 0x40 MLOAD PUSH32 0xEF7709C4280301E83496C7CE22108CB27B84DE2FAB81BC6DE1470B81F0539661 SWAP1 PUSH2 0x2C3 SWAP1 DUP11 SWAP1 DUP11 SWAP1 DUP8 SWAP1 PUSH2 0x6CA JUMP JUMPDEST PUSH1 0x40 MLOAD DUP1 SWAP2 SUB SWAP1 LOG2 POP PUSH1 0x10 SLOAD SWAP7 SWAP6 POP POP POP POP POP POP JUMP JUMPDEST PUSH2 0x2710 PUSH1 0x1 PUSH1 0x1 PUSH1 0x60 SHL SUB DUP3 AND DUP2 LT ISZERO PUSH2 0x318 JUMPI PUSH1 0x40 MLOAD PUSH4 0x6F483D09 PUSH1 0xE0 SHL DUP2 MSTORE PUSH1 0x1 PUSH1 0x1 PUSH1 0x60 SHL SUB DUP4 AND PUSH1 0x4 DUP3 ADD MSTORE PUSH1 0x24 DUP2 ADD DUP3 SWAP1 MSTORE PUSH1 0x44 ADD PUSH2 0xBF JUMP JUMPDEST PUSH1 0x1 PUSH1 0x1 PUSH1 0xA0 SHL SUB DUP4 AND PUSH2 0x341 JUMPI PUSH1 0x40 MLOAD PUSH4 0x5B6CC805 PUSH1 0xE1 SHL DUP2 MSTORE PUSH0 PUSH1 0x4 DUP3 ADD MSTORE PUSH1 0x24 ADD PUSH2 0xBF JUMP JUMPDEST POP PUSH1 0x40 DUP1 MLOAD DUP1 DUP3 ADD SWAP1 SWAP2 MSTORE PUSH1 0x1 PUSH1 0x1 PUSH1 0xA0 SHL SUB SWAP1 SWAP3 AND DUP1 DUP4 MSTORE PUSH1 0x1 PUSH1 0x1 PUSH1 0x60 SHL SUB SWAP1 SWAP2 AND PUSH1 0x20 SWAP1 SWAP3 ADD DUP3 SWAP1 MSTORE PUSH1 0x1 PUSH1 0xA0 SHL SWAP1 SWAP2 MUL OR PUSH1 0xA SSTORE JUMP JUMPDEST PUSH4 0x4E487B71 PUSH1 0xE0 SHL PUSH0 MSTORE PUSH1 0x41 PUSH1 0x4 MSTORE PUSH1 0x24 PUSH0 REVERT JUMPDEST PUSH0 DUP3 PUSH1 0x1F DUP4 ADD SLT PUSH2 0x39E JUMPI PUSH0 PUSH0 REVERT JUMPDEST DUP2 MLOAD PUSH1 0x1 PUSH1 0x1 PUSH1 0x40 SHL SUB DUP2 GT ISZERO PUSH2 0x3B7 JUMPI PUSH2 0x3B7 PUSH2 0x37B JUMP JUMPDEST PUSH1 0x40 MLOAD PUSH1 0x1F DUP3 ADD PUSH1 0x1F NOT SWAP1 DUP2 AND PUSH1 0x3F ADD AND DUP2 ADD PUSH1 0x1 PUSH1 0x1 PUSH1 0x40 SHL SUB DUP2 GT DUP3 DUP3 LT OR ISZERO PUSH2 0x3E5 JUMPI PUSH2 0x3E5 PUSH2 0x37B JUMP JUMPDEST PUSH1 0x40 MSTORE DUP2 DUP2 MSTORE DUP4 DUP3 ADD PUSH1 0x20 ADD DUP6 LT ISZERO PUSH2 0x3FC JUMPI PUSH0 PUSH0 REVERT JUMPDEST DUP2 PUSH1 0x20 DUP6 ADD PUSH1 0x20 DUP4 ADD MCOPY PUSH0 SWAP2 DUP2 ADD PUSH1 0x20 ADD SWAP2 SWAP1 SWAP2 MSTORE SWAP4 SWAP3 POP POP POP JUMP JUMPDEST DUP1 MLOAD PUSH1 0x1 PUSH1 0x1 PUSH1 0xA0 SHL SUB DUP2 AND DUP2 EQ PUSH2 0x42E JUMPI PUSH0 PUSH0 REVERT JUMPDEST SWAP2 SWAP1 POP JUMP JUMPDEST DUP1 MLOAD PUSH1 0x1 PUSH1 0x1 PUSH1 0x60 SHL SUB DUP2 AND DUP2 EQ PUSH2 0x42E JUMPI PUSH0 PUSH0 REVERT JUMPDEST PUSH0 PUSH0 PUSH0 PUSH0 PUSH0 PUSH0 PUSH0 PUSH0 PUSH2 0x100 DUP10 DUP12 SUB SLT ISZERO PUSH2 0x461 JUMPI PUSH0 PUSH0 REVERT JUMPDEST DUP9 MLOAD PUSH1 0x1 PUSH1 0x1 PUSH1 0x40 SHL SUB DUP2 GT ISZERO PUSH2 0x476 JUMPI PUSH0 PUSH0 REVERT JUMPDEST PUSH2 0x482 DUP12 DUP3 DUP13 ADD PUSH2 0x38F JUMP JUMPDEST PUSH1 0x20 DUP12 ADD MLOAD SWAP1 SWAP10 POP SWAP1 POP PUSH1 0x1 PUSH1 0x1 PUSH1 0x40 SHL SUB DUP2 GT ISZERO PUSH2 0x49F JUMPI PUSH0 PUSH0 REVERT JUMPDEST PUSH2 0x4AB DUP12 DUP3 DUP13 ADD PUSH2 0x38F JUMP JUMPDEST PUSH1 0x40 DUP12 ADD MLOAD SWAP1 SWAP9 POP SWAP1 POP PUSH1 0x1 PUSH1 0x1 PUSH1 0x40 SHL SUB DUP2 GT ISZERO PUSH2 0x4C8 JUMPI PUSH0 PUSH0 REVERT JUMPDEST PUSH2 0x4D4 DUP12 DUP3 DUP13 ADD PUSH2 0x38F JUMP JUMPDEST PUSH1 0x60 DUP12 ADD MLOAD SWAP1 SWAP8 POP SWAP1 POP PUSH1 0x1 PUSH1 0x1 PUSH1 0x40 SHL SUB DUP2 GT ISZERO PUSH2 0x4F1 JUMPI PUSH0 PUSH0 REVERT JUMPDEST PUSH2 0x4FD DUP12 DUP3 DUP13 ADD PUSH2 0x38F JUMP JUMPDEST PUSH1 0x80 DUP12 ADD MLOAD PUSH1 0xA0 DUP13 ADD MLOAD SWAP2 SWAP8 POP SWAP6 POP SWAP4 POP PUSH2 0x51C SWAP1 POP PUSH1 0xC0 DUP11 ADD PUSH2 0x418 JUMP JUMPDEST SWAP2 POP PUSH2 0x52A PUSH1 0xE0 DUP11 ADD PUSH2 0x433 JUMP JUMPDEST SWAP1 POP SWAP3 SWAP6 SWAP9 POP SWAP3 SWAP6 SWAP9 SWAP1 SWAP4 SWAP7 POP JUMP JUMPDEST PUSH1 0x1 DUP2 DUP2 SHR SWAP1 DUP3 AND DUP1 PUSH2 0x54D JUMPI PUSH1 0x7F DUP3 AND SWAP2 POP JUMPDEST PUSH1 0x20 DUP3 LT DUP2 SUB PUSH2 0x56B JUMPI PUSH4 0x4E487B71 PUSH1 0xE0 SHL PUSH0 MSTORE PUSH1 0x22 PUSH1 0x4 MSTORE PUSH1 0x24 PUSH0 REVERT JUMPDEST POP SWAP2 SWAP1 POP JUMP JUMPDEST PUSH1 0x1F DUP3 GT ISZERO PUSH2 0x5B8 JUMPI DUP1 PUSH0 MSTORE PUSH1 0x20 PUSH0 KECCAK256 PUSH1 0x1F DUP5 ADD PUSH1 0x5 SHR DUP2 ADD PUSH1 0x20 DUP6 LT ISZERO PUSH2 0x596 JUMPI POP DUP1 JUMPDEST PUSH1 0x1F DUP5 ADD PUSH1 0x5 SHR DUP3 ADD SWAP2 POP JUMPDEST DUP2 DUP2 LT ISZERO PUSH2 0x5B5 JUMPI PUSH0 DUP2 SSTORE PUSH1 0x1 ADD PUSH2 0x5A2 JUMP JUMPDEST POP POP JUMPDEST POP POP POP JUMP JUMPDEST DUP2 MLOAD PUSH1 0x1 PUSH1 0x1 PUSH1 0x40 SHL SUB DUP2 GT ISZERO PUSH2 0x5D6 JUMPI PUSH2 0x5D6 PUSH2 0x37B JUMP JUMPDEST PUSH2 0x5EA DUP2 PUSH2 0x5E4 DUP5 SLOAD PUSH2 0x539 JUMP JUMPDEST DUP5 PUSH2 0x571 JUMP JUMPDEST PUSH1 0x20 PUSH1 0x1F DUP3 GT PUSH1 0x1 DUP2 EQ PUSH2 0x61C JUMPI PUSH0 DUP4 ISZERO PUSH2 0x605 JUMPI POP DUP5 DUP3 ADD MLOAD JUMPDEST PUSH0 NOT PUSH1 0x3 DUP6 SWAP1 SHL SHR NOT AND PUSH1 0x1 DUP5 SWAP1 SHL OR DUP5 SSTORE PUSH2 0x5B5 JUMP JUMPDEST PUSH0 DUP5 DUP2 MSTORE PUSH1 0x20 DUP2 KECCAK256 PUSH1 0x1F NOT DUP6 AND SWAP2 JUMPDEST DUP3 DUP2 LT ISZERO PUSH2 0x64B JUMPI DUP8 DUP6 ADD MLOAD DUP3 SSTORE PUSH1 0x20 SWAP5 DUP6 ADD SWAP5 PUSH1 0x1 SWAP1 SWAP3 ADD SWAP2 ADD PUSH2 0x62B JUMP JUMPDEST POP DUP5 DUP3 LT ISZERO PUSH2 0x668 JUMPI DUP7 DUP5 ADD MLOAD PUSH0 NOT PUSH1 0x3 DUP8 SWAP1 SHL PUSH1 0xF8 AND SHR NOT AND DUP2 SSTORE JUMPDEST POP POP POP POP PUSH1 0x1 SWAP1 DUP2 SHL ADD SWAP1 SSTORE POP JUMP JUMPDEST DUP1 DUP3 ADD DUP1 DUP3 GT ISZERO PUSH2 0x696 JUMPI PUSH4 0x4E487B71 PUSH1 0xE0 SHL PUSH0 MSTORE PUSH1 0x11 PUSH1 0x4 MSTORE PUSH1 0x24 PUSH0 REVERT JUMPDEST SWAP3 SWAP2 POP POP JUMP JUMPDEST PUSH0 DUP2 MLOAD DUP1 DUP5 MSTORE DUP1 PUSH1 0x20 DUP5 ADD PUSH1 0x20 DUP7 ADD MCOPY PUSH0 PUSH1 0x20 DUP3 DUP7 ADD ADD MSTORE PUSH1 0x20 PUSH1 0x1F NOT PUSH1 0x1F DUP4 ADD AND DUP6 ADD ADD SWAP2 POP POP SWAP3 SWAP2 POP POP JUMP JUMPDEST PUSH1 0x60 DUP2 MSTORE PUSH0 PUSH2 0x6DC PUSH1 0x60 DUP4 ADD DUP7 PUSH2 0x69C JUMP JUMPDEST DUP3 DUP2 SUB PUSH1 0x20 DUP5 ADD MSTORE PUSH2 0x6EE DUP2 DUP7 PUSH2 0x69C JUMP JUMPDEST SWAP2 POP POP DUP3 PUSH1 0x40 DUP4 ADD MSTORE SWAP5 SWAP4 POP POP POP POP JUMP JUMPDEST PUSH2 0x2D8E DUP1 PUSH2 0x70C PUSH0 CODECOPY PUSH0 RETURN INVALID PUSH1 0x80 PUSH1 0x40 MSTORE PUSH1 0x4 CALLDATASIZE LT PUSH2 0x233 JUMPI PUSH0 CALLDATALOAD PUSH1 0xE0 SHR DUP1 PUSH4 0x6352211E GT PUSH2 0x129 JUMPI DUP1 PUSH4 0xA090195D GT PUSH2 0xA8 JUMPI DUP1 PUSH4 0xC7EFDD34 GT PUSH2 0x6D JUMPI DUP1 PUSH4 0xC7EFDD34 EQ PUSH2 0x6AB JUMPI DUP1 PUSH4 0xC87B56DD EQ PUSH2 0x6CA JUMPI DUP1 PUSH4 0xE985E9C5 EQ PUSH2 0x6E9 JUMPI DUP1 PUSH4 0xF2FDE38B EQ PUSH2 0x708 JUMPI DUP1 PUSH4 0xF968ADBE EQ PUSH2 0x727 JUMPI PUSH0 PUSH0 REVERT JUMPDEST DUP1 PUSH4 0xA090195D EQ PUSH2 0x609 JUMPI DUP1 PUSH4 0xA22CB465 EQ PUSH2 0x63B JUMPI DUP1 PUSH4 0xB88D4FDE EQ PUSH2 0x65A JUMPI DUP1 PUSH4 0xBFD1E249 EQ PUSH2 0x679 JUMPI DUP1 PUSH4 0xC4590D3F EQ PUSH2 0x68C JUMPI PUSH0 PUSH0 REVERT JUMPDEST DUP1 PUSH4 0x8456CB59 GT PUSH2 0xEE JUMPI DUP1 PUSH4 0x8456CB59 EQ PUSH2 0x586 JUMPI DUP1 PUSH4 0x8DA5CB5B EQ PUSH2 0x59A JUMPI DUP1 PUSH4 0x91D7C67F EQ PUSH2 0x5B7 JUMPI DUP1 PUSH4 0x95D44510 EQ PUSH2 0x5D6 JUMPI DUP1 PUSH4 0x95D89B41 EQ PUSH2 0x5F5 JUMPI PUSH0 PUSH0 REVERT JUMPDEST DUP1 PUSH4 0x6352211E EQ PUSH2 0x4EA JUMPI DUP1 PUSH4 0x70A08231 EQ PUSH2 0x509 JUMPI DUP1 PUSH4 0x715018A6 EQ PUSH2 0x528 JUMPI DUP1 PUSH4 0x71DA92D7 EQ PUSH2 0x53C JUMPI DUP1 PUSH4 0x7D1AC3C8 EQ PUSH2 0x55B JUMPI PUSH0 PUSH0 REVERT JUMPDEST DUP1 PUSH4 0x2F745C59 GT PUSH2 0x1B5 JUMPI DUP1 PUSH4 0x4F6CCCE7 GT PUSH2 0x17A JUMPI DUP1 PUSH4 0x4F6CCCE7 EQ PUSH2 0x44F JUMPI DUP1 PUSH4 0x4F80F1C4 EQ PUSH2 0x46E JUMPI DUP1 PUSH4 0x51CFF8D9 EQ PUSH2 0x482 JUMPI DUP1 PUSH4 0x5C975ABB EQ PUSH2 0x4A1 JUMPI DUP1 PUSH4 0x625FCD6C EQ PUSH2 0x4BF JUMPI PUSH0 PUSH0 REVERT JUMPDEST DUP1 PUSH4 0x2F745C59 EQ PUSH2 0x3B2 JUMPI DUP1 PUSH4 0x30B82402 EQ PUSH2 0x3D1 JUMPI DUP1 PUSH4 0x3F4BA83A EQ PUSH2 0x407 JUMPI DUP1 PUSH4 0x42842E0E EQ PUSH2 0x41B JUMPI DUP1 PUSH4 0x453C2310 EQ PUSH2 0x43A JUMPI PUSH0 PUSH0 REVERT JUMPDEST DUP1 PUSH4 0x22872F29 GT PUSH2 0x1FB JUMPI DUP1 PUSH4 0x22872F29 EQ PUSH2 0x302 JUMPI DUP1 PUSH4 0x23B872DD EQ PUSH2 0x317 JUMPI DUP1 PUSH4 0x2A55205A EQ PUSH2 0x336 JUMPI DUP1 PUSH4 0x2C7667B7 EQ PUSH2 0x374 JUMPI DUP1 PUSH4 0x2F32E2AA EQ PUSH2 0x393 JUMPI PUSH0 PUSH0 REVERT JUMPDEST DUP1 PUSH4 0x1FFC9A7 EQ PUSH2 0x237 JUMPI DUP1 PUSH4 0x6FDDE03 EQ PUSH2 0x26B JUMPI DUP1 PUSH4 0x81812FC EQ PUSH2 0x28C JUMPI DUP1 PUSH4 0x95EA7B3 EQ PUSH2 0x2C3 JUMPI DUP1 PUSH4 0x18160DDD EQ PUSH2 0x2E4 JUMPI JUMPDEST PUSH0 PUSH0 REVERT JUMPDEST CALLVALUE DUP1 ISZERO PUSH2 0x242 JUMPI PUSH0 PUSH0 REVERT JUMPDEST POP PUSH2 0x256 PUSH2 0x251 CALLDATASIZE PUSH1 0x4 PUSH2 0x2425 JUMP JUMPDEST PUSH2 0x73C JUMP JUMPDEST PUSH1 0x40 MLOAD SWAP1 ISZERO ISZERO DUP2 MSTORE PUSH1 0x20 ADD JUMPDEST PUSH1 0x40 MLOAD DUP1 SWAP2 SUB SWAP1 RETURN JUMPDEST CALLVALUE DUP1 ISZERO PUSH2 0x276 JUMPI PUSH0 PUSH0 REVERT JUMPDEST POP PUSH2 0x27F PUSH2 0x74C JUMP JUMPDEST PUSH1 0x40 MLOAD PUSH2 0x262 SWAP2 SWAP1 PUSH2 0x2475 JUMP JUMPDEST CALLVALUE DUP1 ISZERO PUSH2 0x297 JUMPI PUSH0 PUSH0 REVERT JUMPDEST POP PUSH2 0x2AB PUSH2 0x2A6 CALLDATASIZE PUSH1 0x4 PUSH2 0x2487 JUMP JUMPDEST PUSH2 0x7DB JUMP JUMPDEST PUSH1 0x40 MLOAD PUSH1 0x1 PUSH1 0x1 PUSH1 0xA0 SHL SUB SWAP1 SWAP2 AND DUP2 MSTORE PUSH1 0x20 ADD PUSH2 0x262 JUMP JUMPDEST CALLVALUE DUP1 ISZERO PUSH2 0x2CE JUMPI PUSH0 PUSH0 REVERT JUMPDEST POP PUSH2 0x2E2 PUSH2 0x2DD CALLDATASIZE PUSH1 0x4 PUSH2 0x24B2 JUMP JUMPDEST PUSH2 0x802 JUMP JUMPDEST STOP JUMPDEST CALLVALUE DUP1 ISZERO PUSH2 0x2EF JUMPI PUSH0 PUSH0 REVERT JUMPDEST POP PUSH1 0x8 SLOAD JUMPDEST PUSH1 0x40 MLOAD SWAP1 DUP2 MSTORE PUSH1 0x20 ADD PUSH2 0x262 JUMP JUMPDEST CALLVALUE DUP1 ISZERO PUSH2 0x30D JUMPI PUSH0 PUSH0 REVERT JUMPDEST POP PUSH2 0x2F4 PUSH1 0x10 SLOAD DUP2 JUMP JUMPDEST CALLVALUE DUP1 ISZERO PUSH2 0x322 JUMPI PUSH0 PUSH0 REVERT JUMPDEST POP PUSH2 0x2E2 PUSH2 0x331 CALLDATASIZE PUSH1 0x4 PUSH2 0x24DC JUMP JUMPDEST PUSH2 0x811 JUMP JUMPDEST CALLVALUE DUP1 ISZERO PUSH2 0x341 JUMPI PUSH0 PUSH0 REVERT JUMPDEST POP PUSH2 0x355 PUSH2 0x350 CALLDATASIZE PUSH1 0x4 PUSH2 0x251A JUMP JUMPDEST PUSH2 0x89F JUMP JUMPDEST PUSH1 0x40 DUP1 MLOAD PUSH1 0x1 PUSH1 0x1 PUSH1 0xA0 SHL SUB SWAP1 SWAP4 AND DUP4 MSTORE PUSH1 0x20 DUP4 ADD SWAP2 SWAP1 SWAP2 MSTORE ADD PUSH2 0x262 JUMP JUMPDEST CALLVALUE DUP1 ISZERO PUSH2 0x37F JUMPI PUSH0 PUSH0 REVERT JUMPDEST POP PUSH2 0x2F4 PUSH2 0x38E CALLDATASIZE PUSH1 0x4 PUSH2 0x258C JUMP JUMPDEST PUSH2 0x924 JUMP JUMPDEST CALLVALUE DUP1 ISZERO PUSH2 0x39E JUMPI PUSH0 PUSH0 REVERT JUMPDEST POP PUSH2 0x2E2 PUSH2 0x3AD CALLDATASIZE PUSH1 0x4 PUSH2 0x2656 JUMP JUMPDEST PUSH2 0x9E4 JUMP JUMPDEST CALLVALUE DUP1 ISZERO PUSH2 0x3BD JUMPI PUSH0 PUSH0 REVERT JUMPDEST POP PUSH2 0x2F4 PUSH2 0x3CC CALLDATASIZE PUSH1 0x4 PUSH2 0x24B2 JUMP JUMPDEST PUSH2 0xA58 JUMP JUMPDEST CALLVALUE DUP1 ISZERO PUSH2 0x3DC JUMPI PUSH0 PUSH0 REVERT JUMPDEST POP PUSH2 0x2F4 PUSH2 0x3EB CALLDATASIZE PUSH1 0x4 PUSH2 0x2680 JUMP JUMPDEST PUSH1 0x14 PUSH1 0x20 SWAP1 DUP2 MSTORE PUSH0 SWAP3 DUP4 MSTORE PUSH1 0x40 DUP1 DUP5 KECCAK256 SWAP1 SWAP2 MSTORE SWAP1 DUP3 MSTORE SWAP1 KECCAK256 SLOAD DUP2 JUMP JUMPDEST CALLVALUE DUP1 ISZERO PUSH2 0x412 JUMPI PUSH0 PUSH0 REVERT JUMPDEST POP PUSH2 0x2E2 PUSH2 0xABB JUMP JUMPDEST CALLVALUE DUP1 ISZERO PUSH2 0x426 JUMPI PUSH0 PUSH0 REVERT JUMPDEST POP PUSH2 0x2E2 PUSH2 0x435 CALLDATASIZE PUSH1 0x4 PUSH2 0x24DC JUMP JUMPDEST PUSH2 0xACD JUMP JUMPDEST CALLVALUE DUP1 ISZERO PUSH2 0x445 JUMPI PUSH0 PUSH0 REVERT JUMPDEST POP PUSH2 0x2F4 PUSH1 0xF SLOAD DUP2 JUMP JUMPDEST CALLVALUE DUP1 ISZERO PUSH2 0x45A JUMPI PUSH0 PUSH0 REVERT JUMPDEST POP PUSH2 0x2F4 PUSH2 0x469 CALLDATASIZE PUSH1 0x4 PUSH2 0x2487 JUMP JUMPDEST PUSH2 0xAEC JUMP JUMPDEST CALLVALUE DUP1 ISZERO PUSH2 0x479 JUMPI PUSH0 PUSH0 REVERT JUMPDEST POP PUSH2 0x2F4 PUSH1 0x15 DUP2 JUMP JUMPDEST CALLVALUE DUP1 ISZERO PUSH2 0x48D JUMPI PUSH0 PUSH0 REVERT JUMPDEST POP PUSH2 0x2E2 PUSH2 0x49C CALLDATASIZE PUSH1 0x4 PUSH2 0x26AE JUMP JUMPDEST PUSH2 0xB41 JUMP JUMPDEST CALLVALUE DUP1 ISZERO PUSH2 0x4AC JUMPI PUSH0 PUSH0 REVERT JUMPDEST POP PUSH1 0xC SLOAD PUSH1 0x1 PUSH1 0xA0 SHL SWAP1 DIV PUSH1 0xFF AND PUSH2 0x256 JUMP JUMPDEST CALLVALUE DUP1 ISZERO PUSH2 0x4CA JUMPI PUSH0 PUSH0 REVERT JUMPDEST POP PUSH2 0x2F4 PUSH2 0x4D9 CALLDATASIZE PUSH1 0x4 PUSH2 0x2487 JUMP JUMPDEST PUSH1 0x12 PUSH1 0x20 MSTORE PUSH0 SWAP1 DUP2 MSTORE PUSH1 0x40 SWAP1 KECCAK256 SLOAD DUP2 JUMP JUMPDEST CALLVALUE DUP1 ISZERO PUSH2 0x4F5 JUMPI PUSH0 PUSH0 REVERT JUMPDEST POP PUSH2 0x2AB PUSH2 0x504 CALLDATASIZE PUSH1 0x4 PUSH2 0x2487 JUMP JUMPDEST PUSH2 0xC6C JUMP JUMPDEST CALLVALUE DUP1 ISZERO PUSH2 0x514 JUMPI PUSH0 PUSH0 REVERT JUMPDEST POP PUSH2 0x2F4 PUSH2 0x523 CALLDATASIZE PUSH1 0x4 PUSH2 0x26AE JUMP JUMPDEST PUSH2 0xC76 JUMP JUMPDEST CALLVALUE DUP1 ISZERO PUSH2 0x533 JUMPI PUSH0 PUSH0 REVERT JUMPDEST POP PUSH2 0x2E2 PUSH2 0xCBB JUMP JUMPDEST CALLVALUE DUP1 ISZERO PUSH2 0x547 JUMPI PUSH0 PUSH0 REVERT JUMPDEST POP PUSH2 0x2E2 PUSH2 0x556 CALLDATASIZE PUSH1 0x4 PUSH2 0x26C9 JUMP JUMPDEST PUSH2 0xCCC JUMP JUMPDEST CALLVALUE DUP1 ISZERO PUSH2 0x566 JUMPI PUSH0 PUSH0 REVERT JUMPDEST POP PUSH2 0x2F4 PUSH2 0x575 CALLDATASIZE PUSH1 0x4 PUSH2 0x2487 JUMP JUMPDEST PUSH1 0x13 PUSH1 0x20 MSTORE PUSH0 SWAP1 DUP2 MSTORE PUSH1 0x40 SWAP1 KECCAK256 SLOAD DUP2 JUMP JUMPDEST CALLVALUE DUP1 ISZERO PUSH2 0x591 JUMPI PUSH0 PUSH0 REVERT JUMPDEST POP PUSH2 0x2E2 PUSH2 0xD53 JUMP JUMPDEST CALLVALUE DUP1 ISZERO PUSH2 0x5A5 JUMPI PUSH0 PUSH0 REVERT JUMPDEST POP PUSH1 0xC SLOAD PUSH1 0x1 PUSH1 0x1 PUSH1 0xA0 SHL SUB AND PUSH2 0x2AB JUMP JUMPDEST CALLVALUE DUP1 ISZERO PUSH2 0x5C2 JUMPI PUSH0 PUSH0 REVERT JUMPDEST POP PUSH2 0x2E2 PUSH2 0x5D1 CALLDATASIZE PUSH1 0x4 PUSH2 0x26C9 JUMP JUMPDEST PUSH2 0xD63 JUMP JUMPDEST CALLVALUE DUP1 ISZERO PUSH2 0x5E1 JUMPI PUSH0 PUSH0 REVERT JUMPDEST POP PUSH2 0x2E2 PUSH2 0x5F0 CALLDATASIZE PUSH1 0x4 PUSH2 0x2656 JUMP JUMPDEST PUSH2 0xDD1 JUMP JUMPDEST CALLVALUE DUP1 ISZERO PUSH2 0x600 JUMPI PUSH0 PUSH0 REVERT JUMPDEST POP PUSH2 0x27F PUSH2 0xE2F JUMP JUMPDEST CALLVALUE DUP1 ISZERO PUSH2 0x614 JUMPI PUSH0 PUSH0 REVERT JUMPDEST POP PUSH2 0x628 PUSH2 0x623 CALLDATASIZE PUSH1 0x4 PUSH2 0x2487 JUMP JUMPDEST PUSH2 0xE3E JUMP JUMPDEST PUSH1 0x40 MLOAD PUSH2 0x262 SWAP8 SWAP7 SWAP6 SWAP5 SWAP4 SWAP3 SWAP2 SWAP1 PUSH2 0x2711 JUMP JUMPDEST CALLVALUE DUP1 ISZERO PUSH2 0x646 JUMPI PUSH0 PUSH0 REVERT JUMPDEST POP PUSH2 0x2E2 PUSH2 0x655 CALLDATASIZE PUSH1 0x4 PUSH2 0x2770 JUMP JUMPDEST PUSH2 0x1010 JUMP JUMPDEST CALLVALUE DUP1 ISZERO PUSH2 0x665 JUMPI PUSH0 PUSH0 REVERT JUMPDEST POP PUSH2 0x2E2 PUSH2 0x674 CALLDATASIZE PUSH1 0x4 PUSH2 0x27AE JUMP JUMPDEST PUSH2 0x101B JUMP JUMPDEST PUSH2 0x2E2 PUSH2 0x687 CALLDATASIZE PUSH1 0x4 PUSH2 0x251A JUMP JUMPDEST PUSH2 0x1033 JUMP JUMPDEST CALLVALUE DUP1 ISZERO PUSH2 0x697 JUMPI PUSH0 PUSH0 REVERT JUMPDEST POP PUSH2 0x2E2 PUSH2 0x6A6 CALLDATASIZE PUSH1 0x4 PUSH2 0x251A JUMP JUMPDEST PUSH2 0x13C0 JUMP JUMPDEST CALLVALUE DUP1 ISZERO PUSH2 0x6B6 JUMPI PUSH0 PUSH0 REVERT JUMPDEST POP PUSH2 0x2E2 PUSH2 0x6C5 CALLDATASIZE PUSH1 0x4 PUSH2 0x251A JUMP JUMPDEST PUSH2 0x1456 JUMP JUMPDEST CALLVALUE DUP1 ISZERO PUSH2 0x6D5 JUMPI PUSH0 PUSH0 REVERT JUMPDEST POP PUSH2 0x27F PUSH2 0x6E4 CALLDATASIZE PUSH1 0x4 PUSH2 0x2487 JUMP JUMPDEST PUSH2 0x14B9 JUMP JUMPDEST CALLVALUE DUP1 ISZERO PUSH2 0x6F4 JUMPI PUSH0 PUSH0 REVERT JUMPDEST POP PUSH2 0x256 PUSH2 0x703 CALLDATASIZE PUSH1 0x4 PUSH2 0x288F JUMP JUMPDEST PUSH2 0x1743 JUMP JUMPDEST CALLVALUE DUP1 ISZERO PUSH2 0x713 JUMPI PUSH0 PUSH0 REVERT JUMPDEST POP PUSH2 0x2E2 PUSH2 0x722 CALLDATASIZE PUSH1 0x4 PUSH2 0x26AE JUMP JUMPDEST PUSH2 0x1770 JUMP JUMPDEST CALLVALUE DUP1 ISZERO PUSH2 0x732 JUMPI PUSH0 PUSH0 REVERT JUMPDEST POP PUSH2 0x2F4 PUSH1 0xE SLOAD DUP2 JUMP JUMPDEST PUSH0 PUSH2 0x746 DUP3 PUSH2 0x17AA JUMP JUMPDEST SWAP3 SWAP2 POP POP JUMP JUMPDEST PUSH1 0x60 PUSH0 DUP1 SLOAD PUSH2 0x75A SWAP1 PUSH2 0x28BB JUMP JUMPDEST DUP1 PUSH1 0x1F ADD PUSH1 0x20 DUP1 SWAP2 DIV MUL PUSH1 0x20 ADD PUSH1 0x40 MLOAD SWAP1 DUP2 ADD PUSH1 0x40 MSTORE DUP1 SWAP3 SWAP2 SWAP1 DUP2 DUP2 MSTORE PUSH1 0x20 ADD DUP3 DUP1 SLOAD PUSH2 0x786 SWAP1 PUSH2 0x28BB JUMP JUMPDEST DUP1 ISZERO PUSH2 0x7D1 JUMPI DUP1 PUSH1 0x1F LT PUSH2 0x7A8 JUMPI PUSH2 0x100 DUP1 DUP4 SLOAD DIV MUL DUP4 MSTORE SWAP2 PUSH1 0x20 ADD SWAP2 PUSH2 0x7D1 JUMP JUMPDEST DUP3 ADD SWAP2 SWAP1 PUSH0 MSTORE PUSH1 0x20 PUSH0 KECCAK256 SWAP1 JUMPDEST DUP2 SLOAD DUP2 MSTORE SWAP1 PUSH1 0x1 ADD SWAP1 PUSH1 0x20 ADD DUP1 DUP4 GT PUSH2 0x7B4 JUMPI DUP3 SWAP1 SUB PUSH1 0x1F AND DUP3 ADD SWAP2 JUMPDEST POP POP POP POP POP SWAP1 POP SWAP1 JUMP JUMPDEST PUSH0 PUSH2 0x7E5 DUP3 PUSH2 0x17CE JUMP JUMPDEST POP PUSH0 DUP3 DUP2 MSTORE PUSH1 0x4 PUSH1 0x20 MSTORE PUSH1 0x40 SWAP1 KECCAK256 SLOAD PUSH1 0x1 PUSH1 0x1 PUSH1 0xA0 SHL SUB AND PUSH2 0x746 JUMP JUMPDEST PUSH2 0x80D DUP3 DUP3 CALLER PUSH2 0x1806 JUMP JUMPDEST POP POP JUMP JUMPDEST PUSH1 0x1 PUSH1 0x1 PUSH1 0xA0 SHL SUB DUP3 AND PUSH2 0x83F JUMPI PUSH1 0x40 MLOAD PUSH4 0x32505749 PUSH1 0xE1 SHL DUP2 MSTORE PUSH0 PUSH1 0x4 DUP3 ADD MSTORE PUSH1 0x24 ADD JUMPDEST PUSH1 0x40 MLOAD DUP1 SWAP2 SUB SWAP1 REVERT JUMPDEST PUSH0 PUSH2 0x84B DUP4 DUP4 CALLER PUSH2 0x1813 JUMP JUMPDEST SWAP1 POP DUP4 PUSH1 0x1 PUSH1 0x1 PUSH1 0xA0 SHL SUB AND DUP2 PUSH1 0x1 PUSH1 0x1 PUSH1 0xA0 SHL SUB AND EQ PUSH2 0x899 JUMPI PUSH1 0x40 MLOAD PUSH4 0x64283D7B PUSH1 0xE0 SHL DUP2 MSTORE PUSH1 0x1 PUSH1 0x1 PUSH1 0xA0 SHL SUB DUP1 DUP7 AND PUSH1 0x4 DUP4 ADD MSTORE PUSH1 0x24 DUP3 ADD DUP5 SWAP1 MSTORE DUP3 AND PUSH1 0x44 DUP3 ADD MSTORE PUSH1 0x64 ADD PUSH2 0x836 JUMP JUMPDEST POP POP POP POP JUMP JUMPDEST PUSH0 DUP3 DUP2 MSTORE PUSH1 0xB PUSH1 0x20 MSTORE PUSH1 0x40 DUP2 KECCAK256 DUP1 SLOAD DUP3 SWAP2 SWAP1 PUSH1 0x1 PUSH1 0x1 PUSH1 0xA0 SHL SUB DUP2 AND SWAP1 PUSH1 0x1 PUSH1 0xA0 SHL SWAP1 DIV PUSH1 0x1 PUSH1 0x1 PUSH1 0x60 SHL SUB AND DUP2 PUSH2 0x8F2 JUMPI POP POP PUSH1 0xA SLOAD PUSH1 0x1 PUSH1 0x1 PUSH1 0xA0 SHL SUB DUP2 AND SWAP1 PUSH1 0x1 PUSH1 0xA0 SHL SWAP1 DIV PUSH1 0x1 PUSH1 0x1 PUSH1 0x60 SHL SUB AND JUMPDEST PUSH0 PUSH2 0x2710 PUSH2 0x909 PUSH1 0x1 PUSH1 0x1 PUSH1 0x60 SHL SUB DUP5 AND DUP10 PUSH2 0x2907 JUMP JUMPDEST PUSH2 0x913 SWAP2 SWAP1 PUSH2 0x291E JUMP JUMPDEST SWAP3 SWAP6 POP SWAP2 SWAP4 POP POP POP POP JUMPDEST SWAP3 POP SWAP3 SWAP1 POP JUMP JUMPDEST PUSH0 PUSH2 0x92D PUSH2 0x1827 JUMP JUMPDEST PUSH2 0x9D6 DUP11 DUP11 DUP1 DUP1 PUSH1 0x1F ADD PUSH1 0x20 DUP1 SWAP2 DIV MUL PUSH1 0x20 ADD PUSH1 0x40 MLOAD SWAP1 DUP2 ADD PUSH1 0x40 MSTORE DUP1 SWAP4 SWAP3 SWAP2 SWAP1 DUP2 DUP2 MSTORE PUSH1 0x20 ADD DUP4 DUP4 DUP1 DUP3 DUP5 CALLDATACOPY PUSH0 SWAP3 ADD SWAP2 SWAP1 SWAP2 MSTORE POP POP PUSH1 0x40 DUP1 MLOAD PUSH1 0x20 PUSH1 0x1F DUP15 ADD DUP2 SWAP1 DIV DUP2 MUL DUP3 ADD DUP2 ADD SWAP1 SWAP3 MSTORE DUP13 DUP2 MSTORE SWAP3 POP DUP13 SWAP2 POP DUP12 SWAP1 DUP2 SWAP1 DUP5 ADD DUP4 DUP3 DUP1 DUP3 DUP5 CALLDATACOPY PUSH0 SWAP3 ADD SWAP2 SWAP1 SWAP2 MSTORE POP POP PUSH1 0x40 DUP1 MLOAD PUSH1 0x20 PUSH1 0x1F DUP14 ADD DUP2 SWAP1 DIV DUP2 MUL DUP3 ADD DUP2 ADD SWAP1 SWAP3 MSTORE DUP12 DUP2 MSTORE SWAP3 POP DUP12 SWAP2 POP DUP11 SWAP1 DUP2 SWAP1 DUP5 ADD DUP4 DUP3 DUP1 DUP3 DUP5 CALLDATACOPY PUSH0 SWAP3 ADD SWAP2 SWAP1 SWAP2 MSTORE POP DUP10 SWAP3 POP DUP11 SWAP2 POP DUP9 SWAP1 POP PUSH2 0x1854 JUMP JUMPDEST SWAP11 SWAP10 POP POP POP POP POP POP POP POP POP POP JUMP JUMPDEST PUSH2 0x9EC PUSH2 0x1827 JUMP JUMPDEST PUSH0 DUP3 DUP2 MSTORE PUSH1 0x11 PUSH1 0x20 MSTORE PUSH1 0x40 SWAP1 DUP2 SWAP1 KECCAK256 PUSH1 0x3 DUP2 ADD DUP1 SLOAD PUSH2 0xFF00 NOT AND PUSH2 0x100 DUP6 ISZERO ISZERO MUL OR SWAP1 SSTORE PUSH1 0x5 DUP2 ADD SLOAD SWAP2 MLOAD DUP5 SWAP3 PUSH32 0x897964203EF510AAA18434C4C580750233798A36858E203B859C67F83AF9C1BA SWAP3 PUSH2 0xA4C SWAP3 PUSH1 0x1 SWAP1 SWAP2 ADD SWAP2 DUP7 SWAP2 PUSH2 0x29BC JUMP JUMPDEST PUSH1 0x40 MLOAD DUP1 SWAP2 SUB SWAP1 LOG2 POP POP JUMP JUMPDEST PUSH0 PUSH2 0xA62 DUP4 PUSH2 0xC76 JUMP JUMPDEST DUP3 LT PUSH2 0xA93 JUMPI PUSH1 0x40 MLOAD PUSH4 0x295F44F7 PUSH1 0xE2 SHL DUP2 MSTORE PUSH1 0x1 PUSH1 0x1 PUSH1 0xA0 SHL SUB DUP5 AND PUSH1 0x4 DUP3 ADD MSTORE PUSH1 0x24 DUP2 ADD DUP4 SWAP1 MSTORE PUSH1 0x44 ADD PUSH2 0x836 JUMP JUMPDEST POP PUSH1 0x1 PUSH1 0x1 PUSH1 0xA0 SHL SUB SWAP2 SWAP1 SWAP2 AND PUSH0 SWAP1 DUP2 MSTORE PUSH1 0x6 PUSH1 0x20 SWAP1 DUP2 MSTORE PUSH1 0x40 DUP1 DUP4 KECCAK256 SWAP4 DUP4 MSTORE SWAP3 SWAP1 MSTORE KECCAK256 SLOAD SWAP1 JUMP JUMPDEST PUSH2 0xAC3 PUSH2 0x1827 JUMP JUMPDEST PUSH2 0xACB PUSH2 0x197F JUMP JUMPDEST JUMP JUMPDEST PUSH2 0xAE7 DUP4 DUP4 DUP4 PUSH1 0x40 MLOAD DUP1 PUSH1 0x20 ADD PUSH1 0x40 MSTORE DUP1 PUSH0 DUP2 MSTORE POP PUSH2 0x101B JUMP JUMPDEST POP POP POP JUMP JUMPDEST PUSH0 PUSH2 0xAF6 PUSH1 0x8 SLOAD SWAP1 JUMP JUMPDEST DUP3 LT PUSH2 0xB1E JUMPI PUSH1 0x40 MLOAD PUSH4 0x295F44F7 PUSH1 0xE2 SHL DUP2 MSTORE PUSH0 PUSH1 0x4 DUP3 ADD MSTORE PUSH1 0x24 DUP2 ADD DUP4 SWAP1 MSTORE PUSH1 0x44 ADD PUSH2 0x836 JUMP JUMPDEST PUSH1 0x8 DUP3 DUP2 SLOAD DUP2 LT PUSH2 0xB31 JUMPI PUSH2 0xB31 PUSH2 0x29E0 JUMP JUMPDEST SWAP1 PUSH0 MSTORE PUSH1 0x20 PUSH0 KECCAK256 ADD SLOAD SWAP1 POP SWAP2 SWAP1 POP JUMP JUMPDEST PUSH2 0xB49 PUSH2 0x1827 JUMP JUMPDEST PUSH2 0xB51 PUSH2 0x19D4 JUMP JUMPDEST SELFBALANCE DUP1 PUSH2 0xB8A JUMPI PUSH1 0x40 MLOAD PUSH3 0x461BCD PUSH1 0xE5 SHL DUP2 MSTORE PUSH1 0x20 PUSH1 0x4 DUP3 ADD MSTORE PUSH1 0x8 PUSH1 0x24 DUP3 ADD MSTORE PUSH8 0x4E6F2066756E6473 PUSH1 0xC0 SHL PUSH1 0x44 DUP3 ADD MSTORE PUSH1 0x64 ADD PUSH2 0x836 JUMP JUMPDEST PUSH0 DUP3 PUSH1 0x1 PUSH1 0x1 PUSH1 0xA0 SHL SUB AND DUP3 PUSH1 0x40 MLOAD PUSH0 PUSH1 0x40 MLOAD DUP1 DUP4 SUB DUP2 DUP6 DUP8 GAS CALL SWAP3 POP POP POP RETURNDATASIZE DUP1 PUSH0 DUP2 EQ PUSH2 0xBD3 JUMPI PUSH1 0x40 MLOAD SWAP2 POP PUSH1 0x1F NOT PUSH1 0x3F RETURNDATASIZE ADD AND DUP3 ADD PUSH1 0x40 MSTORE RETURNDATASIZE DUP3 MSTORE RETURNDATASIZE PUSH0 PUSH1 0x20 DUP5 ADD RETURNDATACOPY PUSH2 0xBD8 JUMP JUMPDEST PUSH1 0x60 SWAP2 POP JUMPDEST POP POP SWAP1 POP DUP1 PUSH2 0xC1B JUMPI PUSH1 0x40 MLOAD PUSH3 0x461BCD PUSH1 0xE5 SHL DUP2 MSTORE PUSH1 0x20 PUSH1 0x4 DUP3 ADD MSTORE PUSH1 0xF PUSH1 0x24 DUP3 ADD MSTORE PUSH15 0x15DA5D1A191C985DC819985A5B1959 PUSH1 0x8A SHL PUSH1 0x44 DUP3 ADD MSTORE PUSH1 0x64 ADD PUSH2 0x836 JUMP JUMPDEST PUSH1 0x40 DUP1 MLOAD PUSH1 0x1 PUSH1 0x1 PUSH1 0xA0 SHL SUB DUP6 AND DUP2 MSTORE PUSH1 0x20 DUP2 ADD DUP5 SWAP1 MSTORE PUSH32 0x7084F5476618D8E60B11EF0D7D3F06914655ADB8793E28FF7F018D4C76D505D5 SWAP2 ADD PUSH1 0x40 MLOAD DUP1 SWAP2 SUB SWAP1 LOG1 POP POP PUSH2 0xC69 PUSH1 0x1 PUSH1 0xD SSTORE JUMP JUMPDEST POP JUMP JUMPDEST PUSH0 PUSH2 0x746 DUP3 PUSH2 0x17CE JUMP JUMPDEST PUSH0 PUSH1 0x1 PUSH1 0x1 PUSH1 0xA0 SHL SUB DUP3 AND PUSH2 0xCA0 JUMPI PUSH1 0x40 MLOAD PUSH4 0x22718AD9 PUSH1 0xE2 SHL DUP2 MSTORE PUSH0 PUSH1 0x4 DUP3 ADD MSTORE PUSH1 0x24 ADD PUSH2 0x836 JUMP JUMPDEST POP PUSH1 0x1 PUSH1 0x1 PUSH1 0xA0 SHL SUB AND PUSH0 SWAP1 DUP2 MSTORE PUSH1 0x3 PUSH1 0x20 MSTORE PUSH1 0x40 SWAP1 KECCAK256 SLOAD SWAP1 JUMP JUMPDEST PUSH2 0xCC3 PUSH2 0x1827 JUMP JUMPDEST PUSH2 0xACB PUSH0 PUSH2 0x19FE JUMP JUMPDEST PUSH2 0xCD4 PUSH2 0x1827 JUMP JUMPDEST PUSH0 DUP4 DUP2 MSTORE PUSH1 0x11 PUSH1 0x20 MSTORE PUSH1 0x40 SWAP1 KECCAK256 PUSH1 0x1 ADD PUSH2 0xCEF DUP3 DUP5 DUP4 PUSH2 0x2A38 JUMP JUMPDEST POP PUSH0 DUP4 DUP2 MSTORE PUSH1 0x11 PUSH1 0x20 MSTORE PUSH1 0x40 SWAP1 DUP2 SWAP1 KECCAK256 PUSH1 0x3 DUP2 ADD SLOAD PUSH1 0x5 SWAP1 SWAP2 ADD SLOAD SWAP2 MLOAD DUP6 SWAP3 PUSH32 0x897964203EF510AAA18434C4C580750233798A36858E203B859C67F83AF9C1BA SWAP3 PUSH2 0xD46 SWAP3 DUP8 SWAP3 DUP8 SWAP3 PUSH2 0x100 SWAP1 DIV PUSH1 0xFF AND SWAP2 PUSH2 0x2B1A JUMP JUMPDEST PUSH1 0x40 MLOAD DUP1 SWAP2 SUB SWAP1 LOG2 POP POP POP JUMP JUMPDEST PUSH2 0xD5B PUSH2 0x1827 JUMP JUMPDEST PUSH2 0xACB PUSH2 0x1A4F JUMP JUMPDEST PUSH2 0xD6B PUSH2 0x1827 JUMP JUMPDEST PUSH0 DUP4 DUP2 MSTORE PUSH1 0x11 PUSH1 0x20 MSTORE PUSH1 0x40 SWAP1 KECCAK256 PUSH1 0x2 ADD PUSH2 0xD86 DUP3 DUP5 DUP4 PUSH2 0x2A38 JUMP JUMPDEST POP PUSH0 DUP4 DUP2 MSTORE PUSH1 0x11 PUSH1 0x20 MSTORE PUSH1 0x40 SWAP1 DUP2 SWAP1 KECCAK256 PUSH1 0x3 ADD SLOAD SWAP1 MLOAD DUP5 SWAP2 PUSH32 0xAE4223E82531F2B8BB0418E0B96986DEEA6DABAA8E46CD21A422A6B2D56AC1A8 SWAP2 PUSH2 0xD46 SWAP2 PUSH1 0xFF AND SWAP1 DUP7 SWAP1 DUP7 SWAP1 PUSH2 0x2B40 JUMP JUMPDEST PUSH2 0xDD9 PUSH2 0x1827 JUMP JUMPDEST PUSH0 DUP3 DUP2 MSTORE PUSH1 0x11 PUSH1 0x20 MSTORE PUSH1 0x40 SWAP1 DUP2 SWAP1 KECCAK256 PUSH1 0x3 DUP2 ADD DUP1 SLOAD PUSH1 0xFF NOT AND DUP5 ISZERO ISZERO OR SWAP1 SSTORE SWAP1 MLOAD DUP4 SWAP2 PUSH32 0xAE4223E82531F2B8BB0418E0B96986DEEA6DABAA8E46CD21A422A6B2D56AC1A8 SWAP2 PUSH2 0xA4C SWAP2 DUP6 SWAP2 PUSH1 0x2 SWAP1 SWAP2 ADD SWAP1 PUSH2 0x2B64 JUMP JUMPDEST PUSH1 0x60 PUSH1 0x1 DUP1 SLOAD PUSH2 0x75A SWAP1 PUSH2 0x28BB JUMP JUMPDEST PUSH1 0x11 PUSH1 0x20 MSTORE PUSH0 SWAP1 DUP2 MSTORE PUSH1 0x40 SWAP1 KECCAK256 DUP1 SLOAD DUP2 SWAP1 PUSH2 0xE58 SWAP1 PUSH2 0x28BB JUMP JUMPDEST DUP1 PUSH1 0x1F ADD PUSH1 0x20 DUP1 SWAP2 DIV MUL PUSH1 0x20 ADD PUSH1 0x40 MLOAD SWAP1 DUP2 ADD PUSH1 0x40 MSTORE DUP1 SWAP3 SWAP2 SWAP1 DUP2 DUP2 MSTORE PUSH1 0x20 ADD DUP3 DUP1 SLOAD PUSH2 0xE84 SWAP1 PUSH2 0x28BB JUMP JUMPDEST DUP1 ISZERO PUSH2 0xECF JUMPI DUP1 PUSH1 0x1F LT PUSH2 0xEA6 JUMPI PUSH2 0x100 DUP1 DUP4 SLOAD DIV MUL DUP4 MSTORE SWAP2 PUSH1 0x20 ADD SWAP2 PUSH2 0xECF JUMP JUMPDEST DUP3 ADD SWAP2 SWAP1 PUSH0 MSTORE PUSH1 0x20 PUSH0 KECCAK256 SWAP1 JUMPDEST DUP2 SLOAD DUP2 MSTORE SWAP1 PUSH1 0x1 ADD SWAP1 PUSH1 0x20 ADD DUP1 DUP4 GT PUSH2 0xEB2 JUMPI DUP3 SWAP1 SUB PUSH1 0x1F AND DUP3 ADD SWAP2 JUMPDEST POP POP POP POP POP SWAP1 DUP1 PUSH1 0x1 ADD DUP1 SLOAD PUSH2 0xEE4 SWAP1 PUSH2 0x28BB JUMP JUMPDEST DUP1 PUSH1 0x1F ADD PUSH1 0x20 DUP1 SWAP2 DIV MUL PUSH1 0x20 ADD PUSH1 0x40 MLOAD SWAP1 DUP2 ADD PUSH1 0x40 MSTORE DUP1 SWAP3 SWAP2 SWAP1 DUP2 DUP2 MSTORE PUSH1 0x20 ADD DUP3 DUP1 SLOAD PUSH2 0xF10 SWAP1 PUSH2 0x28BB JUMP JUMPDEST DUP1 ISZERO PUSH2 0xF5B JUMPI DUP1 PUSH1 0x1F LT PUSH2 0xF32 JUMPI PUSH2 0x100 DUP1 DUP4 SLOAD DIV MUL DUP4 MSTORE SWAP2 PUSH1 0x20 ADD SWAP2 PUSH2 0xF5B JUMP JUMPDEST DUP3 ADD SWAP2 SWAP1 PUSH0 MSTORE PUSH1 0x20 PUSH0 KECCAK256 SWAP1 JUMPDEST DUP2 SLOAD DUP2 MSTORE SWAP1 PUSH1 0x1 ADD SWAP1 PUSH1 0x20 ADD DUP1 DUP4 GT PUSH2 0xF3E JUMPI DUP3 SWAP1 SUB PUSH1 0x1F AND DUP3 ADD SWAP2 JUMPDEST POP POP POP POP POP SWAP1 DUP1 PUSH1 0x2 ADD DUP1 SLOAD PUSH2 0xF70 SWAP1 PUSH2 0x28BB JUMP JUMPDEST DUP1 PUSH1 0x1F ADD PUSH1 0x20 DUP1 SWAP2 DIV MUL PUSH1 0x20 ADD PUSH1 0x40 MLOAD SWAP1 DUP2 ADD PUSH1 0x40 MSTORE DUP1 SWAP3 SWAP2 SWAP1 DUP2 DUP2 MSTORE PUSH1 0x20 ADD DUP3 DUP1 SLOAD PUSH2 0xF9C SWAP1 PUSH2 0x28BB JUMP JUMPDEST DUP1 ISZERO PUSH2 0xFE7 JUMPI DUP1 PUSH1 0x1F LT PUSH2 0xFBE JUMPI PUSH2 0x100 DUP1 DUP4 SLOAD DIV MUL DUP4 MSTORE SWAP2 PUSH1 0x20 ADD SWAP2 PUSH2 0xFE7 JUMP JUMPDEST DUP3 ADD SWAP2 SWAP1 PUSH0 MSTORE PUSH1 0x20 PUSH0 KECCAK256 SWAP1 JUMPDEST DUP2 SLOAD DUP2 MSTORE SWAP1 PUSH1 0x1 ADD SWAP1 PUSH1 0x20 ADD DUP1 DUP4 GT PUSH2 0xFCA JUMPI DUP3 SWAP1 SUB PUSH1 0x1F AND DUP3 ADD SWAP2 JUMPDEST POP POP POP PUSH1 0x3 DUP5 ADD SLOAD PUSH1 0x4 DUP6 ADD SLOAD PUSH1 0x5 SWAP1 SWAP6 ADD SLOAD SWAP4 SWAP5 PUSH1 0xFF DUP1 DUP4 AND SWAP6 PUSH2 0x100 SWAP1 SWAP4 DIV AND SWAP4 POP SWAP2 POP DUP8 JUMP JUMPDEST PUSH2 0x80D CALLER DUP4 DUP4 PUSH2 0x1A92 JUMP JUMPDEST PUSH2 0x1026 DUP5 DUP5 DUP5 PUSH2 0x811 JUMP JUMPDEST PUSH2 0x899 CALLER DUP6 DUP6 DUP6 DUP6 PUSH2 0x1B30 JUMP JUMPDEST PUSH2 0x103B PUSH2 0x1C58 JUMP JUMPDEST PUSH2 0x1043 PUSH2 0x19D4 JUMP JUMPDEST PUSH0 DUP3 GT DUP1 ISZERO PUSH2 0x1054 JUMPI POP PUSH1 0x10 SLOAD DUP3 GT ISZERO JUMPDEST PUSH2 0x108F JUMPI PUSH1 0x40 MLOAD PUSH3 0x461BCD PUSH1 0xE5 SHL DUP2 MSTORE PUSH1 0x20 PUSH1 0x4 DUP3 ADD MSTORE PUSH1 0xC PUSH1 0x24 DUP3 ADD MSTORE PUSH12 0x496E76616C6964206465636B PUSH1 0xA0 SHL PUSH1 0x44 DUP3 ADD MSTORE PUSH1 0x64 ADD PUSH2 0x836 JUMP JUMPDEST PUSH0 DUP2 GT DUP1 ISZERO PUSH2 0x10A0 JUMPI POP PUSH1 0xE SLOAD DUP2 GT ISZERO JUMPDEST PUSH2 0x10DD JUMPI PUSH1 0x40 MLOAD PUSH3 0x461BCD PUSH1 0xE5 SHL DUP2 MSTORE PUSH1 0x20 PUSH1 0x4 DUP3 ADD MSTORE PUSH1 0xE PUSH1 0x24 DUP3 ADD MSTORE PUSH14 0x125B9D985B1A5908185B5BDD5B9D PUSH1 0x92 SHL PUSH1 0x44 DUP3 ADD MSTORE PUSH1 0x64 ADD PUSH2 0x836 JUMP JUMPDEST PUSH0 DUP3 DUP2 MSTORE PUSH1 0x11 PUSH1 0x20 MSTORE PUSH1 0x40 SWAP1 KECCAK256 PUSH1 0x3 DUP2 ADD SLOAD PUSH2 0x100 SWAP1 DIV PUSH1 0xFF AND PUSH2 0x1135 JUMPI PUSH1 0x40 MLOAD PUSH3 0x461BCD PUSH1 0xE5 SHL DUP2 MSTORE PUSH1 0x20 PUSH1 0x4 DUP3 ADD MSTORE PUSH1 0xF PUSH1 0x24 DUP3 ADD MSTORE PUSH15 0x4465636B206E6F7420616374697665 PUSH1 0x88 SHL PUSH1 0x44 DUP3 ADD MSTORE PUSH1 0x64 ADD PUSH2 0x836 JUMP JUMPDEST PUSH1 0x15 DUP3 DUP3 PUSH1 0x4 ADD SLOAD PUSH2 0x1147 SWAP2 SWAP1 PUSH2 0x2B7E JUMP JUMPDEST GT ISZERO PUSH2 0x1181 JUMPI PUSH1 0x40 MLOAD PUSH3 0x461BCD PUSH1 0xE5 SHL DUP2 MSTORE PUSH1 0x20 PUSH1 0x4 DUP3 ADD MSTORE PUSH1 0x9 PUSH1 0x24 DUP3 ADD MSTORE PUSH9 0x111958DAC8199D5B1B PUSH1 0xBA SHL PUSH1 0x44 DUP3 ADD MSTORE PUSH1 0x64 ADD PUSH2 0x836 JUMP JUMPDEST PUSH1 0xF SLOAD PUSH0 DUP5 DUP2 MSTORE PUSH1 0x14 PUSH1 0x20 SWAP1 DUP2 MSTORE PUSH1 0x40 DUP1 DUP4 KECCAK256 CALLER DUP5 MSTORE SWAP1 SWAP2 MSTORE SWAP1 KECCAK256 SLOAD PUSH2 0x11A8 SWAP1 DUP5 SWAP1 PUSH2 0x2B7E JUMP JUMPDEST GT ISZERO PUSH2 0x11F6 JUMPI PUSH1 0x40 MLOAD PUSH3 0x461BCD PUSH1 0xE5 SHL DUP2 MSTORE PUSH1 0x20 PUSH1 0x4 DUP3 ADD MSTORE PUSH1 0x1E PUSH1 0x24 DUP3 ADD MSTORE PUSH32 0x57616C6C6574206C696D697420657863656564656420666F72206465636B0000 PUSH1 0x44 DUP3 ADD MSTORE PUSH1 0x64 ADD PUSH2 0x836 JUMP JUMPDEST PUSH0 DUP3 DUP3 PUSH1 0x5 ADD SLOAD PUSH2 0x1207 SWAP2 SWAP1 PUSH2 0x2907 JUMP JUMPDEST SWAP1 POP DUP1 CALLVALUE LT ISZERO PUSH2 0x124C JUMPI PUSH1 0x40 MLOAD PUSH3 0x461BCD PUSH1 0xE5 SHL DUP2 MSTORE PUSH1 0x20 PUSH1 0x4 DUP3 ADD MSTORE PUSH1 0x10 PUSH1 0x24 DUP3 ADD MSTORE PUSH16 0x92DCE6EACCCCD2C6D2CADCE8408AA89 PUSH1 0x83 SHL PUSH1 0x44 DUP3 ADD MSTORE PUSH1 0x64 ADD PUSH2 0x836 JUMP JUMPDEST PUSH0 JUMPDEST DUP4 DUP2 LT ISZERO PUSH2 0x131E JUMPI PUSH1 0x15 DUP1 SLOAD PUSH0 SWAP2 DUP3 PUSH2 0x1266 DUP4 PUSH2 0x2B91 JUMP JUMPDEST SWAP2 SWAP1 POP SSTORE SWAP1 POP PUSH0 DUP5 PUSH1 0x4 ADD PUSH0 DUP2 SLOAD PUSH2 0x127D SWAP1 PUSH2 0x2B91 JUMP JUMPDEST SWAP2 DUP3 SWAP1 SSTORE POP PUSH0 DUP4 DUP2 MSTORE PUSH1 0x12 PUSH1 0x20 SWAP1 DUP2 MSTORE PUSH1 0x40 DUP1 DUP4 KECCAK256 DUP12 SWAP1 SSTORE PUSH1 0x13 DUP3 MSTORE DUP1 DUP4 KECCAK256 DUP5 SWAP1 SSTORE DUP11 DUP4 MSTORE PUSH1 0x14 DUP3 MSTORE DUP1 DUP4 KECCAK256 CALLER DUP5 MSTORE SWAP1 SWAP2 MSTORE DUP2 KECCAK256 DUP1 SLOAD SWAP3 SWAP4 POP PUSH1 0x1 SWAP3 SWAP1 SWAP2 SWAP1 PUSH2 0x12C7 SWAP1 DUP5 SWAP1 PUSH2 0x2B7E JUMP JUMPDEST SWAP1 SWAP2 SSTORE POP PUSH2 0x12D7 SWAP1 POP CALLER DUP4 PUSH2 0x1C83 JUMP JUMPDEST PUSH1 0x40 DUP1 MLOAD DUP4 DUP2 MSTORE PUSH1 0x20 DUP2 ADD DUP4 SWAP1 MSTORE DUP9 SWAP2 CALLER SWAP2 PUSH32 0x10546B1A6F5245FF0FFA18C256B9E46859C585CBB473B453FCD4C2DC39AE08DB SWAP2 ADD PUSH1 0x40 MLOAD DUP1 SWAP2 SUB SWAP1 LOG3 POP POP PUSH1 0x1 ADD PUSH2 0x124E JUMP JUMPDEST POP DUP1 CALLVALUE GT ISZERO PUSH2 0x13B4 JUMPI PUSH0 CALLER PUSH2 0x1333 DUP4 CALLVALUE PUSH2 0x2BA9 JUMP JUMPDEST PUSH1 0x40 MLOAD PUSH0 DUP2 DUP2 DUP2 DUP6 DUP8 GAS CALL SWAP3 POP POP POP RETURNDATASIZE DUP1 PUSH0 DUP2 EQ PUSH2 0x136C JUMPI PUSH1 0x40 MLOAD SWAP2 POP PUSH1 0x1F NOT PUSH1 0x3F RETURNDATASIZE ADD AND DUP3 ADD PUSH1 0x40 MSTORE RETURNDATASIZE DUP3 MSTORE RETURNDATASIZE PUSH0 PUSH1 0x20 DUP5 ADD RETURNDATACOPY PUSH2 0x1371 JUMP JUMPDEST PUSH1 0x60 SWAP2 POP JUMPDEST POP POP SWAP1 POP DUP1 PUSH2 0x13B2 JUMPI PUSH1 0x40 MLOAD PUSH3 0x461BCD PUSH1 0xE5 SHL DUP2 MSTORE PUSH1 0x20 PUSH1 0x4 DUP3 ADD MSTORE PUSH1 0xD PUSH1 0x24 DUP3 ADD MSTORE PUSH13 0x1499599D5B990819985A5B1959 PUSH1 0x9A SHL PUSH1 0x44 DUP3 ADD MSTORE PUSH1 0x64 ADD PUSH2 0x836 JUMP JUMPDEST POP JUMPDEST POP POP PUSH2 0x80D PUSH1 0x1 PUSH1 0xD SSTORE JUMP JUMPDEST PUSH2 0x13C8 PUSH2 0x1827 JUMP JUMPDEST PUSH0 DUP3 GT DUP1 ISZERO PUSH2 0x13D6 JUMPI POP PUSH0 DUP2 GT JUMPDEST PUSH2 0x140F JUMPI PUSH1 0x40 MLOAD PUSH3 0x461BCD PUSH1 0xE5 SHL DUP2 MSTORE PUSH1 0x20 PUSH1 0x4 DUP3 ADD MSTORE PUSH1 0xA PUSH1 0x24 DUP3 ADD MSTORE PUSH10 0x16995C9BC81B1A5B5A5D PUSH1 0xB2 SHL PUSH1 0x44 DUP3 ADD MSTORE PUSH1 0x64 ADD PUSH2 0x836 JUMP JUMPDEST PUSH1 0xE DUP3 SWAP1 SSTORE PUSH1 0xF DUP2 SWAP1 SSTORE PUSH1 0x40 DUP1 MLOAD DUP4 DUP2 MSTORE PUSH1 0x20 DUP2 ADD DUP4 SWAP1 MSTORE PUSH32 0x4D4981437D0211F9E6843EB024D9ADA1FA3A99514D4343D4AECE106DD11524BB SWAP2 ADD PUSH1 0x40 MLOAD DUP1 SWAP2 SUB SWAP1 LOG1 POP POP JUMP JUMPDEST PUSH2 0x145E PUSH2 0x1827 JUMP JUMPDEST PUSH0 DUP3 DUP2 MSTORE PUSH1 0x11 PUSH1 0x20 MSTORE PUSH1 0x40 SWAP1 DUP2 SWAP1 KECCAK256 PUSH1 0x5 DUP2 ADD DUP4 SWAP1 SSTORE PUSH1 0x3 DUP2 ADD SLOAD SWAP2 MLOAD DUP5 SWAP3 PUSH32 0x897964203EF510AAA18434C4C580750233798A36858E203B859C67F83AF9C1BA SWAP3 PUSH2 0xA4C SWAP3 PUSH1 0x1 SWAP1 SWAP2 ADD SWAP2 PUSH2 0x100 SWAP1 DIV PUSH1 0xFF AND SWAP1 DUP7 SWAP1 PUSH2 0x29BC JUMP JUMPDEST PUSH1 0x60 PUSH2 0x14C4 DUP3 PUSH2 0x17CE JUMP JUMPDEST POP PUSH0 DUP3 DUP2 MSTORE PUSH1 0x12 PUSH1 0x20 SWAP1 DUP2 MSTORE PUSH1 0x40 DUP1 DUP4 KECCAK256 SLOAD DUP1 DUP5 MSTORE PUSH1 0x11 SWAP1 SWAP3 MSTORE DUP1 DUP4 KECCAK256 DUP2 MLOAD PUSH1 0xE0 DUP2 ADD SWAP1 SWAP3 MSTORE DUP1 SLOAD SWAP3 SWAP4 SWAP3 DUP3 SWAP1 DUP3 SWAP1 PUSH2 0x14FC SWAP1 PUSH2 0x28BB JUMP JUMPDEST DUP1 PUSH1 0x1F ADD PUSH1 0x20 DUP1 SWAP2 DIV MUL PUSH1 0x20 ADD PUSH1 0x40 MLOAD SWAP1 DUP2 ADD PUSH1 0x40 MSTORE DUP1 SWAP3 SWAP2 SWAP1 DUP2 DUP2 MSTORE PUSH1 0x20 ADD DUP3 DUP1 SLOAD PUSH2 0x1528 SWAP1 PUSH2 0x28BB JUMP JUMPDEST DUP1 ISZERO PUSH2 0x1573 JUMPI DUP1 PUSH1 0x1F LT PUSH2 0x154A JUMPI PUSH2 0x100 DUP1 DUP4 SLOAD DIV MUL DUP4 MSTORE SWAP2 PUSH1 0x20 ADD SWAP2 PUSH2 0x1573 JUMP JUMPDEST DUP3 ADD SWAP2 SWAP1 PUSH0 MSTORE PUSH1 0x20 PUSH0 KECCAK256 SWAP1 JUMPDEST DUP2 SLOAD DUP2 MSTORE SWAP1 PUSH1 0x1 ADD SWAP1 PUSH1 0x20 ADD DUP1 DUP4 GT PUSH2 0x1556 JUMPI DUP3 SWAP1 SUB PUSH1 0x1F AND DUP3 ADD SWAP2 JUMPDEST POP POP POP POP POP DUP2 MSTORE PUSH1 0x20 ADD PUSH1 0x1 DUP3 ADD DUP1 SLOAD PUSH2 0x158C SWAP1 PUSH2 0x28BB JUMP JUMPDEST DUP1 PUSH1 0x1F ADD PUSH1 0x20 DUP1 SWAP2 DIV MUL PUSH1 0x20 ADD PUSH1 0x40 MLOAD SWAP1 DUP2 ADD PUSH1 0x40 MSTORE DUP1 SWAP3 SWAP2 SWAP1 DUP2 DUP2 MSTORE PUSH1 0x20 ADD DUP3 DUP1 SLOAD PUSH2 0x15B8 SWAP1 PUSH2 0x28BB JUMP JUMPDEST DUP1 ISZERO PUSH2 0x1603 JUMPI DUP1 PUSH1 0x1F LT PUSH2 0x15DA JUMPI PUSH2 0x100 DUP1 DUP4 SLOAD DIV MUL DUP4 MSTORE SWAP2 PUSH1 0x20 ADD SWAP2 PUSH2 0x1603 JUMP JUMPDEST DUP3 ADD SWAP2 SWAP1 PUSH0 MSTORE PUSH1 0x20 PUSH0 KECCAK256 SWAP1 JUMPDEST DUP2 SLOAD DUP2 MSTORE SWAP1 PUSH1 0x1 ADD SWAP1 PUSH1 0x20 ADD DUP1 DUP4 GT PUSH2 0x15E6 JUMPI DUP3 SWAP1 SUB PUSH1 0x1F AND DUP3 ADD SWAP2 JUMPDEST POP POP POP POP POP DUP2 MSTORE PUSH1 0x20 ADD PUSH1 0x2 DUP3 ADD DUP1 SLOAD PUSH2 0x161C SWAP1 PUSH2 0x28BB JUMP JUMPDEST DUP1 PUSH1 0x1F ADD PUSH1 0x20 DUP1 SWAP2 DIV MUL PUSH1 0x20 ADD PUSH1 0x40 MLOAD SWAP1 DUP2 ADD PUSH1 0x40 MSTORE DUP1 SWAP3 SWAP2 SWAP1 DUP2 DUP2 MSTORE PUSH1 0x20 ADD DUP3 DUP1 SLOAD PUSH2 0x1648 SWAP1 PUSH2 0x28BB JUMP JUMPDEST DUP1 ISZERO PUSH2 0x1693 JUMPI DUP1 PUSH1 0x1F LT PUSH2 0x166A JUMPI PUSH2 0x100 DUP1 DUP4 SLOAD DIV MUL DUP4 MSTORE SWAP2 PUSH1 0x20 ADD SWAP2 PUSH2 0x1693 JUMP JUMPDEST DUP3 ADD SWAP2 SWAP1 PUSH0 MSTORE PUSH1 0x20 PUSH0 KECCAK256 SWAP1 JUMPDEST DUP2 SLOAD DUP2 MSTORE SWAP1 PUSH1 0x1 ADD SWAP1 PUSH1 0x20 ADD DUP1 DUP4 GT PUSH2 0x1676 JUMPI DUP3 SWAP1 SUB PUSH1 0x1F AND DUP3 ADD SWAP2 JUMPDEST POP POP POP SWAP2 DUP4 MSTORE POP POP PUSH1 0x3 DUP3 ADD SLOAD PUSH1 0xFF DUP1 DUP3 AND ISZERO ISZERO PUSH1 0x20 DUP5 ADD MSTORE PUSH2 0x100 SWAP1 SWAP2 DIV AND ISZERO ISZERO PUSH1 0x40 DUP3 ADD MSTORE PUSH1 0x4 DUP3 ADD SLOAD PUSH1 0x60 DUP1 DUP4 ADD SWAP2 SWAP1 SWAP2 MSTORE PUSH1 0x5 SWAP1 SWAP3 ADD SLOAD PUSH1 0x80 SWAP1 SWAP2 ADD MSTORE DUP2 ADD MLOAD SWAP1 SWAP2 POP ISZERO DUP1 ISZERO PUSH2 0x16EB JUMPI POP PUSH0 DUP2 PUSH1 0x40 ADD MLOAD MLOAD GT JUMPDEST ISZERO PUSH2 0x16FB JUMPI PUSH1 0x40 ADD MLOAD SWAP4 SWAP3 POP POP POP JUMP JUMPDEST PUSH0 DUP5 DUP2 MSTORE PUSH1 0x13 PUSH1 0x20 SWAP1 DUP2 MSTORE PUSH1 0x40 SWAP1 SWAP2 KECCAK256 SLOAD SWAP1 DUP3 ADD MLOAD PUSH2 0x1719 DUP3 PUSH2 0x1C9C JUMP JUMPDEST PUSH1 0x40 MLOAD PUSH1 0x20 ADD PUSH2 0x172A SWAP3 SWAP2 SWAP1 PUSH2 0x2BD3 JUMP JUMPDEST PUSH1 0x40 MLOAD PUSH1 0x20 DUP2 DUP4 SUB SUB DUP2 MSTORE SWAP1 PUSH1 0x40 MSTORE SWAP4 POP POP POP POP SWAP2 SWAP1 POP JUMP JUMPDEST PUSH1 0x1 PUSH1 0x1 PUSH1 0xA0 SHL SUB SWAP2 DUP3 AND PUSH0 SWAP1 DUP2 MSTORE PUSH1 0x5 PUSH1 0x20 SWAP1 DUP2 MSTORE PUSH1 0x40 DUP1 DUP4 KECCAK256 SWAP4 SWAP1 SWAP5 AND DUP3 MSTORE SWAP2 SWAP1 SWAP2 MSTORE KECCAK256 SLOAD PUSH1 0xFF AND SWAP1 JUMP JUMPDEST PUSH2 0x1778 PUSH2 0x1827 JUMP JUMPDEST PUSH1 0x1 PUSH1 0x1 PUSH1 0xA0 SHL SUB DUP2 AND PUSH2 0x17A1 JUMPI PUSH1 0x40 MLOAD PUSH4 0x1E4FBDF7 PUSH1 0xE0 SHL DUP2 MSTORE PUSH0 PUSH1 0x4 DUP3 ADD MSTORE PUSH1 0x24 ADD PUSH2 0x836 JUMP JUMPDEST PUSH2 0xC69 DUP2 PUSH2 0x19FE JUMP JUMPDEST PUSH0 PUSH1 0x1 PUSH1 0x1 PUSH1 0xE0 SHL SUB NOT DUP3 AND PUSH4 0x152A902D PUSH1 0xE1 SHL EQ DUP1 PUSH2 0x746 JUMPI POP PUSH2 0x746 DUP3 PUSH2 0x1D2C JUMP JUMPDEST PUSH0 DUP2 DUP2 MSTORE PUSH1 0x2 PUSH1 0x20 MSTORE PUSH1 0x40 DUP2 KECCAK256 SLOAD PUSH1 0x1 PUSH1 0x1 PUSH1 0xA0 SHL SUB AND DUP1 PUSH2 0x746 JUMPI PUSH1 0x40 MLOAD PUSH4 0x7E273289 PUSH1 0xE0 SHL DUP2 MSTORE PUSH1 0x4 DUP2 ADD DUP5 SWAP1 MSTORE PUSH1 0x24 ADD PUSH2 0x836 JUMP JUMPDEST PUSH2 0xAE7 DUP4 DUP4 DUP4 PUSH1 0x1 PUSH2 0x1D50 JUMP JUMPDEST PUSH0 PUSH2 0x181F DUP5 DUP5 DUP5 PUSH2 0x1E54 JUMP JUMPDEST SWAP5 SWAP4 POP POP POP POP JUMP JUMPDEST PUSH1 0xC SLOAD PUSH1 0x1 PUSH1 0x1 PUSH1 0xA0 SHL SUB AND CALLER EQ PUSH2 0xACB JUMPI PUSH1 0x40 MLOAD PUSH4 0x118CDAA7 PUSH1 0xE0 SHL DUP2 MSTORE CALLER PUSH1 0x4 DUP3 ADD MSTORE PUSH1 0x24 ADD PUSH2 0x836 JUMP JUMPDEST PUSH0 PUSH1 0x1 PUSH1 0x10 PUSH0 DUP3 DUP3 SLOAD PUSH2 0x1867 SWAP2 SWAP1 PUSH2 0x2B7E JUMP JUMPDEST SWAP1 SWAP2 SSTORE POP POP PUSH1 0x40 DUP1 MLOAD PUSH1 0xE0 DUP2 ADD DUP3 MSTORE DUP9 DUP2 MSTORE PUSH1 0x20 DUP1 DUP3 ADD DUP10 SWAP1 MSTORE DUP2 DUP4 ADD DUP9 SWAP1 MSTORE DUP7 ISZERO ISZERO PUSH1 0x60 DUP4 ADD MSTORE DUP6 ISZERO ISZERO PUSH1 0x80 DUP4 ADD MSTORE PUSH0 PUSH1 0xA0 DUP4 ADD DUP2 SWAP1 MSTORE PUSH1 0xC0 DUP4 ADD DUP7 SWAP1 MSTORE PUSH1 0x10 SLOAD DUP2 MSTORE PUSH1 0x11 SWAP1 SWAP2 MSTORE SWAP2 SWAP1 SWAP2 KECCAK256 DUP2 MLOAD DUP2 SWAP1 PUSH2 0x18C2 SWAP1 DUP3 PUSH2 0x2BFD JUMP JUMPDEST POP PUSH1 0x20 DUP3 ADD MLOAD PUSH1 0x1 DUP3 ADD SWAP1 PUSH2 0x18D7 SWAP1 DUP3 PUSH2 0x2BFD JUMP JUMPDEST POP PUSH1 0x40 DUP3 ADD MLOAD PUSH1 0x2 DUP3 ADD SWAP1 PUSH2 0x18EC SWAP1 DUP3 PUSH2 0x2BFD JUMP JUMPDEST POP PUSH1 0x60 DUP3 ADD MLOAD PUSH1 0x3 DUP3 ADD DUP1 SLOAD PUSH1 0x80 DUP6 ADD MLOAD ISZERO ISZERO PUSH2 0x100 MUL PUSH2 0xFF00 NOT SWAP4 ISZERO ISZERO SWAP4 SWAP1 SWAP4 AND PUSH2 0xFFFF NOT SWAP1 SWAP2 AND OR SWAP2 SWAP1 SWAP2 OR SWAP1 SSTORE PUSH1 0xA0 DUP3 ADD MLOAD PUSH1 0x4 DUP3 ADD SSTORE PUSH1 0xC0 SWAP1 SWAP2 ADD MLOAD PUSH1 0x5 SWAP1 SWAP2 ADD SSTORE PUSH1 0x10 SLOAD PUSH1 0x40 MLOAD PUSH32 0xEF7709C4280301E83496C7CE22108CB27B84DE2FAB81BC6DE1470B81F0539661 SWAP1 PUSH2 0x1969 SWAP1 DUP11 SWAP1 DUP11 SWAP1 DUP8 SWAP1 PUSH2 0x2CB8 JUMP JUMPDEST PUSH1 0x40 MLOAD DUP1 SWAP2 SUB SWAP1 LOG2 POP PUSH1 0x10 SLOAD SWAP7 SWAP6 POP POP POP POP POP POP JUMP JUMPDEST PUSH2 0x1987 PUSH2 0x1F1F JUMP JUMPDEST PUSH1 0xC DUP1 SLOAD PUSH1 0xFF PUSH1 0xA0 SHL NOT AND SWAP1 SSTORE PUSH32 0x5DB9EE0A495BF2E6FF9C91A7834C1BA4FDD244A5E8AA4E537BD38AEAE4B073AA CALLER JUMPDEST PUSH1 0x40 MLOAD PUSH1 0x1 PUSH1 0x1 PUSH1 0xA0 SHL SUB SWAP1 SWAP2 AND DUP2 MSTORE PUSH1 0x20 ADD PUSH1 0x40 MLOAD DUP1 SWAP2 SUB SWAP1 LOG1 JUMP JUMPDEST PUSH1 0x2 PUSH1 0xD SLOAD SUB PUSH2 0x19F7 JUMPI PUSH1 0x40 MLOAD PUSH4 0x3EE5AEB5 PUSH1 0xE0 SHL DUP2 MSTORE PUSH1 0x4 ADD PUSH1 0x40 MLOAD DUP1 SWAP2 SUB SWAP1 REVERT JUMPDEST PUSH1 0x2 PUSH1 0xD SSTORE JUMP JUMPDEST PUSH1 0xC DUP1 SLOAD PUSH1 0x1 PUSH1 0x1 PUSH1 0xA0 SHL SUB DUP4 DUP2 AND PUSH1 0x1 PUSH1 0x1 PUSH1 0xA0 SHL SUB NOT DUP4 AND DUP2 OR SWAP1 SWAP4 SSTORE PUSH1 0x40 MLOAD SWAP2 AND SWAP2 SWAP1 DUP3 SWAP1 PUSH32 0x8BE0079C531659141344CD1FD0A4F28419497F9722A3DAAFE3B4186F6B6457E0 SWAP1 PUSH0 SWAP1 LOG3 POP POP JUMP JUMPDEST PUSH2 0x1A57 PUSH2 0x1C58 JUMP JUMPDEST PUSH1 0xC DUP1 SLOAD PUSH1 0xFF PUSH1 0xA0 SHL NOT AND PUSH1 0x1 PUSH1 0xA0 SHL OR SWAP1 SSTORE PUSH32 0x62E78CEA01BEE320CD4E420270B5EA74000D11B0C9F74754EBDBFC544B05A258 PUSH2 0x19B7 CALLER SWAP1 JUMP JUMPDEST PUSH1 0x1 PUSH1 0x1 PUSH1 0xA0 SHL SUB DUP3 AND PUSH2 0x1AC4 JUMPI PUSH1 0x40 MLOAD PUSH4 0xB611743 PUSH1 0xE3 SHL DUP2 MSTORE PUSH1 0x1 PUSH1 0x1 PUSH1 0xA0 SHL SUB DUP4 AND PUSH1 0x4 DUP3 ADD MSTORE PUSH1 0x24 ADD PUSH2 0x836 JUMP JUMPDEST PUSH1 0x1 PUSH1 0x1 PUSH1 0xA0 SHL SUB DUP4 DUP2 AND PUSH0 DUP2 DUP2 MSTORE PUSH1 0x5 PUSH1 0x20 SWAP1 DUP2 MSTORE PUSH1 0x40 DUP1 DUP4 KECCAK256 SWAP5 DUP8 AND DUP1 DUP5 MSTORE SWAP5 DUP3 MSTORE SWAP2 DUP3 SWAP1 KECCAK256 DUP1 SLOAD PUSH1 0xFF NOT AND DUP7 ISZERO ISZERO SWAP1 DUP2 OR SWAP1 SWAP2 SSTORE SWAP2 MLOAD SWAP2 DUP3 MSTORE PUSH32 0x17307EAB39AB6107E8899845AD3D59BD9653F200F220920489CA2B5937696C31 SWAP2 ADD PUSH1 0x40 MLOAD DUP1 SWAP2 SUB SWAP1 LOG3 POP POP POP JUMP JUMPDEST PUSH1 0x1 PUSH1 0x1 PUSH1 0xA0 SHL SUB DUP4 AND EXTCODESIZE ISZERO PUSH2 0x1C51 JUMPI PUSH1 0x40 MLOAD PUSH4 0xA85BD01 PUSH1 0xE1 SHL DUP2 MSTORE PUSH1 0x1 PUSH1 0x1 PUSH1 0xA0 SHL SUB DUP5 AND SWAP1 PUSH4 0x150B7A02 SWAP1 PUSH2 0x1B72 SWAP1 DUP9 SWAP1 DUP9 SWAP1 DUP8 SWAP1 DUP8 SWAP1 PUSH1 0x4 ADD PUSH2 0x2CED JUMP JUMPDEST PUSH1 0x20 PUSH1 0x40 MLOAD DUP1 DUP4 SUB DUP2 PUSH0 DUP8 GAS CALL SWAP3 POP POP POP DUP1 ISZERO PUSH2 0x1BAC JUMPI POP PUSH1 0x40 DUP1 MLOAD PUSH1 0x1F RETURNDATASIZE SWAP1 DUP2 ADD PUSH1 0x1F NOT AND DUP3 ADD SWAP1 SWAP3 MSTORE PUSH2 0x1BA9 SWAP2 DUP2 ADD SWAP1 PUSH2 0x2D29 JUMP JUMPDEST PUSH1 0x1 JUMPDEST PUSH2 0x1C13 JUMPI RETURNDATASIZE DUP1 DUP1 ISZERO PUSH2 0x1BD9 JUMPI PUSH1 0x40 MLOAD SWAP2 POP PUSH1 0x1F NOT PUSH1 0x3F RETURNDATASIZE ADD AND DUP3 ADD PUSH1 0x40 MSTORE RETURNDATASIZE DUP3 MSTORE RETURNDATASIZE PUSH0 PUSH1 0x20 DUP5 ADD RETURNDATACOPY PUSH2 0x1BDE JUMP JUMPDEST PUSH1 0x60 SWAP2 POP JUMPDEST POP DUP1 MLOAD PUSH0 SUB PUSH2 0x1C0B JUMPI PUSH1 0x40 MLOAD PUSH4 0x32505749 PUSH1 0xE1 SHL DUP2 MSTORE PUSH1 0x1 PUSH1 0x1 PUSH1 0xA0 SHL SUB DUP6 AND PUSH1 0x4 DUP3 ADD MSTORE PUSH1 0x24 ADD PUSH2 0x836 JUMP JUMPDEST DUP1 MLOAD PUSH1 0x20 DUP3 ADD REVERT JUMPDEST PUSH1 0x1 PUSH1 0x1 PUSH1 0xE0 SHL SUB NOT DUP2 AND PUSH4 0xA85BD01 PUSH1 0xE1 SHL EQ PUSH2 0x1C4F JUMPI PUSH1 0x40 MLOAD PUSH4 0x32505749 PUSH1 0xE1 SHL DUP2 MSTORE PUSH1 0x1 PUSH1 0x1 PUSH1 0xA0 SHL SUB DUP6 AND PUSH1 0x4 DUP3 ADD MSTORE PUSH1 0x24 ADD PUSH2 0x836 JUMP JUMPDEST POP JUMPDEST POP POP POP POP POP JUMP JUMPDEST PUSH1 0xC SLOAD PUSH1 0x1 PUSH1 0xA0 SHL SWAP1 DIV PUSH1 0xFF AND ISZERO PUSH2 0xACB JUMPI PUSH1 0x40 MLOAD PUSH4 0xD93C0665 PUSH1 0xE0 SHL DUP2 MSTORE PUSH1 0x4 ADD PUSH1 0x40 MLOAD DUP1 SWAP2 SUB SWAP1 REVERT JUMPDEST PUSH2 0x80D DUP3 DUP3 PUSH1 0x40 MLOAD DUP1 PUSH1 0x20 ADD PUSH1 0x40 MSTORE DUP1 PUSH0 DUP2 MSTORE POP PUSH2 0x1F49 JUMP JUMPDEST PUSH1 0x60 PUSH0 PUSH2 0x1CA8 DUP4 PUSH2 0x1F60 JUMP JUMPDEST PUSH1 0x1 ADD SWAP1 POP PUSH0 DUP2 PUSH8 0xFFFFFFFFFFFFFFFF DUP2 GT ISZERO PUSH2 0x1CC7 JUMPI PUSH2 0x1CC7 PUSH2 0x279A JUMP JUMPDEST PUSH1 0x40 MLOAD SWAP1 DUP1 DUP3 MSTORE DUP1 PUSH1 0x1F ADD PUSH1 0x1F NOT AND PUSH1 0x20 ADD DUP3 ADD PUSH1 0x40 MSTORE DUP1 ISZERO PUSH2 0x1CF1 JUMPI PUSH1 0x20 DUP3 ADD DUP2 DUP1 CALLDATASIZE DUP4 CALLDATACOPY ADD SWAP1 POP JUMPDEST POP SWAP1 POP DUP2 DUP2 ADD PUSH1 0x20 ADD JUMPDEST PUSH0 NOT ADD PUSH16 0x181899199A1A9B1B9C1CB0B131B232B3 PUSH1 0x81 SHL PUSH1 0xA DUP7 MOD BYTE DUP2 MSTORE8 PUSH1 0xA DUP6 DIV SWAP5 POP DUP5 PUSH2 0x1CFB JUMPI POP SWAP4 SWAP3 POP POP POP JUMP JUMPDEST PUSH0 PUSH1 0x1 PUSH1 0x1 PUSH1 0xE0 SHL SUB NOT DUP3 AND PUSH4 0x780E9D63 PUSH1 0xE0 SHL EQ DUP1 PUSH2 0x746 JUMPI POP PUSH2 0x746 DUP3 PUSH2 0x2037 JUMP JUMPDEST DUP1 DUP1 PUSH2 0x1D64 JUMPI POP PUSH1 0x1 PUSH1 0x1 PUSH1 0xA0 SHL SUB DUP3 AND ISZERO ISZERO JUMPDEST ISZERO PUSH2 0x1E25 JUMPI PUSH0 PUSH2 0x1D73 DUP5 PUSH2 0x17CE JUMP JUMPDEST SWAP1 POP PUSH1 0x1 PUSH1 0x1 PUSH1 0xA0 SHL SUB DUP4 AND ISZERO DUP1 ISZERO SWAP1 PUSH2 0x1D9F JUMPI POP DUP3 PUSH1 0x1 PUSH1 0x1 PUSH1 0xA0 SHL SUB AND DUP2 PUSH1 0x1 PUSH1 0x1 PUSH1 0xA0 SHL SUB AND EQ ISZERO JUMPDEST DUP1 ISZERO PUSH2 0x1DB2 JUMPI POP PUSH2 0x1DB0 DUP2 DUP5 PUSH2 0x1743 JUMP JUMPDEST ISZERO JUMPDEST ISZERO PUSH2 0x1DDB JUMPI PUSH1 0x40 MLOAD PUSH4 0xA9FBF51F PUSH1 0xE0 SHL DUP2 MSTORE PUSH1 0x1 PUSH1 0x1 PUSH1 0xA0 SHL SUB DUP5 AND PUSH1 0x4 DUP3 ADD MSTORE PUSH1 0x24 ADD PUSH2 0x836 JUMP JUMPDEST DUP2 ISZERO PUSH2 0x1E23 JUMPI DUP4 DUP6 PUSH1 0x1 PUSH1 0x1 PUSH1 0xA0 SHL SUB AND DUP3 PUSH1 0x1 PUSH1 0x1 PUSH1 0xA0 SHL SUB AND PUSH32 0x8C5BE1E5EBEC7D5BD14F71427D1E84F3DD0314C0F7B2291E5B200AC8C7C3B925 PUSH1 0x40 MLOAD PUSH1 0x40 MLOAD DUP1 SWAP2 SUB SWAP1 LOG4 JUMPDEST POP JUMPDEST POP POP PUSH0 SWAP1 DUP2 MSTORE PUSH1 0x4 PUSH1 0x20 MSTORE PUSH1 0x40 SWAP1 KECCAK256 DUP1 SLOAD PUSH1 0x1 PUSH1 0x1 PUSH1 0xA0 SHL SUB NOT AND PUSH1 0x1 PUSH1 0x1 PUSH1 0xA0 SHL SUB SWAP3 SWAP1 SWAP3 AND SWAP2 SWAP1 SWAP2 OR SWAP1 SSTORE JUMP JUMPDEST PUSH0 PUSH0 PUSH2 0x1E61 DUP6 DUP6 DUP6 PUSH2 0x2086 JUMP JUMPDEST SWAP1 POP PUSH1 0x1 PUSH1 0x1 PUSH1 0xA0 SHL SUB DUP2 AND PUSH2 0x1EBD JUMPI PUSH2 0x1EB8 DUP5 PUSH1 0x8 DUP1 SLOAD PUSH0 DUP4 DUP2 MSTORE PUSH1 0x9 PUSH1 0x20 MSTORE PUSH1 0x40 DUP2 KECCAK256 DUP3 SWAP1 SSTORE PUSH1 0x1 DUP3 ADD DUP4 SSTORE SWAP2 SWAP1 SWAP2 MSTORE PUSH32 0xF3F7A9FE364FAAB93B216DA50A3214154F22A0A2B415B23A84C8169E8B636EE3 ADD SSTORE JUMP JUMPDEST PUSH2 0x1EE0 JUMP JUMPDEST DUP5 PUSH1 0x1 PUSH1 0x1 PUSH1 0xA0 SHL SUB AND DUP2 PUSH1 0x1 PUSH1 0x1 PUSH1 0xA0 SHL SUB AND EQ PUSH2 0x1EE0 JUMPI PUSH2 0x1EE0 DUP2 DUP6 PUSH2 0x2178 JUMP JUMPDEST PUSH1 0x1 PUSH1 0x1 PUSH1 0xA0 SHL SUB DUP6 AND PUSH2 0x1EFC JUMPI PUSH2 0x1EF7 DUP5 PUSH2 0x21F5 JUMP JUMPDEST PUSH2 0x181F JUMP JUMPDEST DUP5 PUSH1 0x1 PUSH1 0x1 PUSH1 0xA0 SHL SUB AND DUP2 PUSH1 0x1 PUSH1 0x1 PUSH1 0xA0 SHL SUB AND EQ PUSH2 0x181F JUMPI PUSH2 0x181F DUP6 DUP6 PUSH2 0x229C JUMP JUMPDEST PUSH1 0xC SLOAD PUSH1 0x1 PUSH1 0xA0 SHL SWAP1 DIV PUSH1 0xFF AND PUSH2 0xACB JUMPI PUSH1 0x40 MLOAD PUSH4 0x8DFC202B PUSH1 0xE0 SHL DUP2 MSTORE PUSH1 0x4 ADD PUSH1 0x40 MLOAD DUP1 SWAP2 SUB SWAP1 REVERT JUMPDEST PUSH2 0x1F53 DUP4 DUP4 PUSH2 0x22EA JUMP JUMPDEST PUSH2 0xAE7 CALLER PUSH0 DUP6 DUP6 DUP6 PUSH2 0x1B30 JUMP JUMPDEST PUSH0 DUP1 PUSH19 0x184F03E93FF9F4DAA797ED6E38ED64BF6A1F01 PUSH1 0x40 SHL DUP4 LT PUSH2 0x1F9E JUMPI PUSH19 0x184F03E93FF9F4DAA797ED6E38ED64BF6A1F01 PUSH1 0x40 SHL DUP4 DIV SWAP3 POP PUSH1 0x40 ADD JUMPDEST PUSH14 0x4EE2D6D415B85ACEF8100000000 DUP4 LT PUSH2 0x1FCA JUMPI PUSH14 0x4EE2D6D415B85ACEF8100000000 DUP4 DIV SWAP3 POP PUSH1 0x20 ADD JUMPDEST PUSH7 0x2386F26FC10000 DUP4 LT PUSH2 0x1FE8 JUMPI PUSH7 0x2386F26FC10000 DUP4 DIV SWAP3 POP PUSH1 0x10 ADD JUMPDEST PUSH4 0x5F5E100 DUP4 LT PUSH2 0x2000 JUMPI PUSH4 0x5F5E100 DUP4 DIV SWAP3 POP PUSH1 0x8 ADD JUMPDEST PUSH2 0x2710 DUP4 LT PUSH2 0x2014 JUMPI PUSH2 0x2710 DUP4 DIV SWAP3 POP PUSH1 0x4 ADD JUMPDEST PUSH1 0x64 DUP4 LT PUSH2 0x2026 JUMPI PUSH1 0x64 DUP4 DIV SWAP3 POP PUSH1 0x2 ADD JUMPDEST PUSH1 0xA DUP4 LT PUSH2 0x746 JUMPI PUSH1 0x1 ADD SWAP3 SWAP2 POP POP JUMP JUMPDEST PUSH0 PUSH1 0x1 PUSH1 0x1 PUSH1 0xE0 SHL SUB NOT DUP3 AND PUSH4 0x80AC58CD PUSH1 0xE0 SHL EQ DUP1 PUSH2 0x2067 JUMPI POP PUSH1 0x1 PUSH1 0x1 PUSH1 0xE0 SHL SUB NOT DUP3 AND PUSH4 0x5B5E139F PUSH1 0xE0 SHL EQ JUMPDEST DUP1 PUSH2 0x746 JUMPI POP PUSH4 0x1FFC9A7 PUSH1 0xE0 SHL PUSH1 0x1 PUSH1 0x1 PUSH1 0xE0 SHL SUB NOT DUP4 AND EQ PUSH2 0x746 JUMP JUMPDEST PUSH0 DUP3 DUP2 MSTORE PUSH1 0x2 PUSH1 0x20 MSTORE PUSH1 0x40 DUP2 KECCAK256 SLOAD PUSH1 0x1 PUSH1 0x1 PUSH1 0xA0 SHL SUB SWAP1 DUP2 AND SWAP1 DUP4 AND ISZERO PUSH2 0x20B2 JUMPI PUSH2 0x20B2 DUP2 DUP5 DUP7 PUSH2 0x234B JUMP JUMPDEST PUSH1 0x1 PUSH1 0x1 PUSH1 0xA0 SHL SUB DUP2 AND ISZERO PUSH2 0x20EC JUMPI PUSH2 0x20CD PUSH0 DUP6 PUSH0 PUSH0 PUSH2 0x1D50 JUMP JUMPDEST PUSH1 0x1 PUSH1 0x1 PUSH1 0xA0 SHL SUB DUP2 AND PUSH0 SWAP1 DUP2 MSTORE PUSH1 0x3 PUSH1 0x20 MSTORE PUSH1 0x40 SWAP1 KECCAK256 DUP1 SLOAD PUSH0 NOT ADD SWAP1 SSTORE JUMPDEST PUSH1 0x1 PUSH1 0x1 PUSH1 0xA0 SHL SUB DUP6 AND ISZERO PUSH2 0x211A JUMPI PUSH1 0x1 PUSH1 0x1 PUSH1 0xA0 SHL SUB DUP6 AND PUSH0 SWAP1 DUP2 MSTORE PUSH1 0x3 PUSH1 0x20 MSTORE PUSH1 0x40 SWAP1 KECCAK256 DUP1 SLOAD PUSH1 0x1 ADD SWAP1 SSTORE JUMPDEST PUSH0 DUP5 DUP2 MSTORE PUSH1 0x2 PUSH1 0x20 MSTORE PUSH1 0x40 DUP1 DUP3 KECCAK256 DUP1 SLOAD PUSH1 0x1 PUSH1 0x1 PUSH1 0xA0 SHL SUB NOT AND PUSH1 0x1 PUSH1 0x1 PUSH1 0xA0 SHL SUB DUP10 DUP2 AND SWAP2 DUP3 OR SWAP1 SWAP3 SSTORE SWAP2 MLOAD DUP8 SWAP4 SWAP2 DUP6 AND SWAP2 PUSH32 0xDDF252AD1BE2C89B69C2B068FC378DAA952BA7F163C4A11628F55A4DF523B3EF SWAP2 LOG4 SWAP5 SWAP4 POP POP POP POP JUMP JUMPDEST PUSH0 PUSH2 0x2182 DUP4 PUSH2 0xC76 JUMP JUMPDEST PUSH0 DUP4 DUP2 MSTORE PUSH1 0x7 PUSH1 0x20 SWAP1 DUP2 MSTORE PUSH1 0x40 DUP1 DUP4 KECCAK256 SLOAD PUSH1 0x1 PUSH1 0x1 PUSH1 0xA0 SHL SUB DUP9 AND DUP5 MSTORE PUSH1 0x6 SWAP1 SWAP3 MSTORE SWAP1 SWAP2 KECCAK256 SWAP2 SWAP3 POP SWAP1 DUP2 DUP4 EQ PUSH2 0x21D7 JUMPI PUSH0 DUP4 DUP2 MSTORE PUSH1 0x20 DUP3 DUP2 MSTORE PUSH1 0x40 DUP1 DUP4 KECCAK256 SLOAD DUP6 DUP5 MSTORE DUP2 DUP5 KECCAK256 DUP2 SWAP1 SSTORE DUP4 MSTORE PUSH1 0x7 SWAP1 SWAP2 MSTORE SWAP1 KECCAK256 DUP3 SWAP1 SSTORE JUMPDEST PUSH0 SWAP4 DUP5 MSTORE PUSH1 0x7 PUSH1 0x20 SWAP1 DUP2 MSTORE PUSH1 0x40 DUP1 DUP7 KECCAK256 DUP7 SWAP1 SSTORE SWAP4 DUP6 MSTORE MSTORE POP DUP2 KECCAK256 SSTORE POP JUMP JUMPDEST PUSH1 0x8 SLOAD PUSH0 SWAP1 PUSH2 0x2206 SWAP1 PUSH1 0x1 SWAP1 PUSH2 0x2BA9 JUMP JUMPDEST PUSH0 DUP4 DUP2 MSTORE PUSH1 0x9 PUSH1 0x20 MSTORE PUSH1 0x40 DUP2 KECCAK256 SLOAD PUSH1 0x8 DUP1 SLOAD SWAP4 SWAP5 POP SWAP1 SWAP3 DUP5 SWAP1 DUP2 LT PUSH2 0x222D JUMPI PUSH2 0x222D PUSH2 0x29E0 JUMP JUMPDEST SWAP1 PUSH0 MSTORE PUSH1 0x20 PUSH0 KECCAK256 ADD SLOAD SWAP1 POP DUP1 PUSH1 0x8 DUP4 DUP2 SLOAD DUP2 LT PUSH2 0x224C JUMPI PUSH2 0x224C PUSH2 0x29E0 JUMP JUMPDEST PUSH0 SWAP2 DUP3 MSTORE PUSH1 0x20 DUP1 DUP4 KECCAK256 SWAP1 SWAP2 ADD SWAP3 SWAP1 SWAP3 SSTORE DUP3 DUP2 MSTORE PUSH1 0x9 SWAP1 SWAP2 MSTORE PUSH1 0x40 DUP1 DUP3 KECCAK256 DUP5 SWAP1 SSTORE DUP6 DUP3 MSTORE DUP2 KECCAK256 SSTORE PUSH1 0x8 DUP1 SLOAD DUP1 PUSH2 0x2283 JUMPI PUSH2 0x2283 PUSH2 0x2D44 JUMP JUMPDEST PUSH1 0x1 SWAP1 SUB DUP2 DUP2 SWAP1 PUSH0 MSTORE PUSH1 0x20 PUSH0 KECCAK256 ADD PUSH0 SWAP1 SSTORE SWAP1 SSTORE POP POP POP POP JUMP JUMPDEST PUSH0 PUSH1 0x1 PUSH2 0x22A8 DUP5 PUSH2 0xC76 JUMP JUMPDEST PUSH2 0x22B2 SWAP2 SWAP1 PUSH2 0x2BA9 JUMP JUMPDEST PUSH1 0x1 PUSH1 0x1 PUSH1 0xA0 SHL SUB SWAP1 SWAP4 AND PUSH0 SWAP1 DUP2 MSTORE PUSH1 0x6 PUSH1 0x20 SWAP1 DUP2 MSTORE PUSH1 0x40 DUP1 DUP4 KECCAK256 DUP7 DUP5 MSTORE DUP3 MSTORE DUP1 DUP4 KECCAK256 DUP6 SWAP1 SSTORE SWAP4 DUP3 MSTORE PUSH1 0x7 SWAP1 MSTORE SWAP2 SWAP1 SWAP2 KECCAK256 SWAP2 SWAP1 SWAP2 SSTORE POP JUMP JUMPDEST PUSH1 0x1 PUSH1 0x1 PUSH1 0xA0 SHL SUB DUP3 AND PUSH2 0x2313 JUMPI PUSH1 0x40 MLOAD PUSH4 0x32505749 PUSH1 0xE1 SHL DUP2 MSTORE PUSH0 PUSH1 0x4 DUP3 ADD MSTORE PUSH1 0x24 ADD PUSH2 0x836 JUMP JUMPDEST PUSH0 PUSH2 0x231F DUP4 DUP4 PUSH0 PUSH2 0x1813 JUMP JUMPDEST SWAP1 POP PUSH1 0x1 PUSH1 0x1 PUSH1 0xA0 SHL SUB DUP2 AND ISZERO PUSH2 0xAE7 JUMPI PUSH1 0x40 MLOAD PUSH4 0x39E35637 PUSH1 0xE1 SHL DUP2 MSTORE PUSH0 PUSH1 0x4 DUP3 ADD MSTORE PUSH1 0x24 ADD PUSH2 0x836 JUMP JUMPDEST PUSH2 0x2356 DUP4 DUP4 DUP4 PUSH2 0x23AF JUMP JUMPDEST PUSH2 0xAE7 JUMPI PUSH1 0x1 PUSH1 0x1 PUSH1 0xA0 SHL SUB DUP4 AND PUSH2 0x2384 JUMPI PUSH1 0x40 MLOAD PUSH4 0x7E273289 PUSH1 0xE0 SHL DUP2 MSTORE PUSH1 0x4 DUP2 ADD DUP3 SWAP1 MSTORE PUSH1 0x24 ADD PUSH2 0x836 JUMP JUMPDEST PUSH1 0x40 MLOAD PUSH4 0x177E802F PUSH1 0xE0 SHL DUP2 MSTORE PUSH1 0x1 PUSH1 0x1 PUSH1 0xA0 SHL SUB DUP4 AND PUSH1 0x4 DUP3 ADD MSTORE PUSH1 0x24 DUP2 ADD DUP3 SWAP1 MSTORE PUSH1 0x44 ADD PUSH2 0x836 JUMP JUMPDEST PUSH0 PUSH1 0x1 PUSH1 0x1 PUSH1 0xA0 SHL SUB DUP4 AND ISZERO DUP1 ISZERO SWAP1 PUSH2 0x181F JUMPI POP DUP3 PUSH1 0x1 PUSH1 0x1 PUSH1 0xA0 SHL SUB AND DUP5 PUSH1 0x1 PUSH1 0x1 PUSH1 0xA0 SHL SUB AND EQ DUP1 PUSH2 0x23E8 JUMPI POP PUSH2 0x23E8 DUP5 DUP5 PUSH2 0x1743 JUMP JUMPDEST DUP1 PUSH2 0x181F JUMPI POP POP PUSH0 SWAP1 DUP2 MSTORE PUSH1 0x4 PUSH1 0x20 MSTORE PUSH1 0x40 SWAP1 KECCAK256 SLOAD PUSH1 0x1 PUSH1 0x1 PUSH1 0xA0 SHL SUB SWAP1 DUP2 AND SWAP2 AND EQ SWAP2 SWAP1 POP JUMP JUMPDEST PUSH1 0x1 PUSH1 0x1 PUSH1 0xE0 SHL SUB NOT DUP2 AND DUP2 EQ PUSH2 0xC69 JUMPI PUSH0 PUSH0 REVERT JUMPDEST PUSH0 PUSH1 0x20 DUP3 DUP5 SUB SLT ISZERO PUSH2 0x2435 JUMPI PUSH0 PUSH0 REVERT JUMPDEST DUP2 CALLDATALOAD PUSH2 0x2440 DUP2 PUSH2 0x2410 JUMP JUMPDEST SWAP4 SWAP3 POP POP POP JUMP JUMPDEST PUSH0 DUP2 MLOAD DUP1 DUP5 MSTORE DUP1 PUSH1 0x20 DUP5 ADD PUSH1 0x20 DUP7 ADD MCOPY PUSH0 PUSH1 0x20 DUP3 DUP7 ADD ADD MSTORE PUSH1 0x20 PUSH1 0x1F NOT PUSH1 0x1F DUP4 ADD AND DUP6 ADD ADD SWAP2 POP POP SWAP3 SWAP2 POP POP JUMP JUMPDEST PUSH1 0x20 DUP2 MSTORE PUSH0 PUSH2 0x2440 PUSH1 0x20 DUP4 ADD DUP5 PUSH2 0x2447 JUMP JUMPDEST PUSH0 PUSH1 0x20 DUP3 DUP5 SUB SLT ISZERO PUSH2 0x2497 JUMPI PUSH0 PUSH0 REVERT JUMPDEST POP CALLDATALOAD SWAP2 SWAP1 POP JUMP JUMPDEST PUSH1 0x1 PUSH1 0x1 PUSH1 0xA0 SHL SUB DUP2 AND DUP2 EQ PUSH2 0xC69 JUMPI PUSH0 PUSH0 REVERT JUMPDEST PUSH0 PUSH0 PUSH1 0x40 DUP4 DUP6 SUB SLT ISZERO PUSH2 0x24C3 JUMPI PUSH0 PUSH0 REVERT JUMPDEST DUP3 CALLDATALOAD PUSH2 0x24CE DUP2 PUSH2 0x249E JUMP JUMPDEST SWAP5 PUSH1 0x20 SWAP4 SWAP1 SWAP4 ADD CALLDATALOAD SWAP4 POP POP POP JUMP JUMPDEST PUSH0 PUSH0 PUSH0 PUSH1 0x60 DUP5 DUP7 SUB SLT ISZERO PUSH2 0x24EE JUMPI PUSH0 PUSH0 REVERT JUMPDEST DUP4 CALLDATALOAD PUSH2 0x24F9 DUP2 PUSH2 0x249E JUMP JUMPDEST SWAP3 POP PUSH1 0x20 DUP5 ADD CALLDATALOAD PUSH2 0x2509 DUP2 PUSH2 0x249E JUMP JUMPDEST SWAP3 SWAP6 SWAP3 SWAP5 POP POP POP PUSH1 0x40 SWAP2 SWAP1 SWAP2 ADD CALLDATALOAD SWAP1 JUMP JUMPDEST PUSH0 PUSH0 PUSH1 0x40 DUP4 DUP6 SUB SLT ISZERO PUSH2 0x252B JUMPI PUSH0 PUSH0 REVERT JUMPDEST POP POP DUP1 CALLDATALOAD SWAP3 PUSH1 0x20 SWAP1 SWAP2 ADD CALLDATALOAD SWAP2 POP JUMP JUMPDEST PUSH0 PUSH0 DUP4 PUSH1 0x1F DUP5 ADD SLT PUSH2 0x254A JUMPI PUSH0 PUSH0 REVERT JUMPDEST POP DUP2 CALLDATALOAD PUSH8 0xFFFFFFFFFFFFFFFF DUP2 GT ISZERO PUSH2 0x2561 JUMPI PUSH0 PUSH0 REVERT JUMPDEST PUSH1 0x20 DUP4 ADD SWAP2 POP DUP4 PUSH1 0x20 DUP3 DUP6 ADD ADD GT ISZERO PUSH2 0x91D JUMPI PUSH0 PUSH0 REVERT JUMPDEST DUP1 CALLDATALOAD DUP1 ISZERO ISZERO DUP2 EQ PUSH2 0x2587 JUMPI PUSH0 PUSH0 REVERT JUMPDEST SWAP2 SWAP1 POP JUMP JUMPDEST PUSH0 PUSH0 PUSH0 PUSH0 PUSH0 PUSH0 PUSH0 PUSH0 PUSH0 PUSH1 0xC0 DUP11 DUP13 SUB SLT ISZERO PUSH2 0x25A4 JUMPI PUSH0 PUSH0 REVERT JUMPDEST DUP10 CALLDATALOAD PUSH8 0xFFFFFFFFFFFFFFFF DUP2 GT ISZERO PUSH2 0x25BA JUMPI PUSH0 PUSH0 REVERT JUMPDEST PUSH2 0x25C6 DUP13 DUP3 DUP14 ADD PUSH2 0x253A JUMP JUMPDEST SWAP1 SWAP11 POP SWAP9 POP POP PUSH1 0x20 DUP11 ADD CALLDATALOAD PUSH8 0xFFFFFFFFFFFFFFFF DUP2 GT ISZERO PUSH2 0x25E5 JUMPI PUSH0 PUSH0 REVERT JUMPDEST PUSH2 0x25F1 DUP13 DUP3 DUP14 ADD PUSH2 0x253A JUMP JUMPDEST SWAP1 SWAP9 POP SWAP7 POP POP PUSH1 0x40 DUP11 ADD CALLDATALOAD PUSH8 0xFFFFFFFFFFFFFFFF DUP2 GT ISZERO PUSH2 0x2610 JUMPI PUSH0 PUSH0 REVERT JUMPDEST PUSH2 0x261C DUP13 DUP3 DUP14 ADD PUSH2 0x253A JUMP JUMPDEST SWAP1 SWAP7 POP SWAP5 POP PUSH2 0x262F SWAP1 POP PUSH1 0x60 DUP12 ADD PUSH2 0x2578 JUMP JUMPDEST SWAP3 POP PUSH2 0x263D PUSH1 0x80 DUP12 ADD PUSH2 0x2578 JUMP JUMPDEST SWAP9 SWAP12 SWAP8 SWAP11 POP SWAP6 SWAP9 SWAP5 SWAP8 SWAP4 SWAP7 SWAP3 SWAP6 POP SWAP1 SWAP4 PUSH1 0xA0 ADD CALLDATALOAD SWAP2 SWAP1 POP JUMP JUMPDEST PUSH0 PUSH0 PUSH1 0x40 DUP4 DUP6 SUB SLT ISZERO PUSH2 0x2667 JUMPI PUSH0 PUSH0 REVERT JUMPDEST DUP3 CALLDATALOAD SWAP2 POP PUSH2 0x2677 PUSH1 0x20 DUP5 ADD PUSH2 0x2578 JUMP JUMPDEST SWAP1 POP SWAP3 POP SWAP3 SWAP1 POP JUMP JUMPDEST PUSH0 PUSH0 PUSH1 0x40 DUP4 DUP6 SUB SLT ISZERO PUSH2 0x2691 JUMPI PUSH0 PUSH0 REVERT JUMPDEST DUP3 CALLDATALOAD SWAP2 POP PUSH1 0x20 DUP4 ADD CALLDATALOAD PUSH2 0x26A3 DUP2 PUSH2 0x249E JUMP JUMPDEST DUP1 SWAP2 POP POP SWAP3 POP SWAP3 SWAP1 POP JUMP JUMPDEST PUSH0 PUSH1 0x20 DUP3 DUP5 SUB SLT ISZERO PUSH2 0x26BE JUMPI PUSH0 PUSH0 REVERT JUMPDEST DUP2 CALLDATALOAD PUSH2 0x2440 DUP2 PUSH2 0x249E JUMP JUMPDEST PUSH0 PUSH0 PUSH0 PUSH1 0x40 DUP5 DUP7 SUB SLT ISZERO PUSH2 0x26DB JUMPI PUSH0 PUSH0 REVERT JUMPDEST DUP4 CALLDATALOAD SWAP3 POP PUSH1 0x20 DUP5 ADD CALLDATALOAD PUSH8 0xFFFFFFFFFFFFFFFF DUP2 GT ISZERO PUSH2 0x26F8 JUMPI PUSH0 PUSH0 REVERT JUMPDEST PUSH2 0x2704 DUP7 DUP3 DUP8 ADD PUSH2 0x253A JUMP JUMPDEST SWAP5 SWAP8 SWAP1 SWAP7 POP SWAP4 SWAP5 POP POP POP POP JUMP JUMPDEST PUSH1 0xE0 DUP2 MSTORE PUSH0 PUSH2 0x2723 PUSH1 0xE0 DUP4 ADD DUP11 PUSH2 0x2447 JUMP JUMPDEST DUP3 DUP2 SUB PUSH1 0x20 DUP5 ADD MSTORE PUSH2 0x2735 DUP2 DUP11 PUSH2 0x2447 JUMP JUMPDEST SWAP1 POP DUP3 DUP2 SUB PUSH1 0x40 DUP5 ADD MSTORE PUSH2 0x2749 DUP2 DUP10 PUSH2 0x2447 JUMP JUMPDEST SWAP7 ISZERO ISZERO PUSH1 0x60 DUP5 ADD MSTORE POP POP SWAP3 ISZERO ISZERO PUSH1 0x80 DUP5 ADD MSTORE PUSH1 0xA0 DUP4 ADD SWAP2 SWAP1 SWAP2 MSTORE PUSH1 0xC0 SWAP1 SWAP2 ADD MSTORE SWAP4 SWAP3 POP POP POP JUMP JUMPDEST PUSH0 PUSH0 PUSH1 0x40 DUP4 DUP6 SUB SLT ISZERO PUSH2 0x2781 JUMPI PUSH0 PUSH0 REVERT JUMPDEST DUP3 CALLDATALOAD PUSH2 0x278C DUP2 PUSH2 0x249E JUMP JUMPDEST SWAP2 POP PUSH2 0x2677 PUSH1 0x20 DUP5 ADD PUSH2 0x2578 JUMP JUMPDEST PUSH4 0x4E487B71 PUSH1 0xE0 SHL PUSH0 MSTORE PUSH1 0x41 PUSH1 0x4 MSTORE PUSH1 0x24 PUSH0 REVERT JUMPDEST PUSH0 PUSH0 PUSH0 PUSH0 PUSH1 0x80 DUP6 DUP8 SUB SLT ISZERO PUSH2 0x27C1 JUMPI PUSH0 PUSH0 REVERT JUMPDEST DUP5 CALLDATALOAD PUSH2 0x27CC DUP2 PUSH2 0x249E JUMP JUMPDEST SWAP4 POP PUSH1 0x20 DUP6 ADD CALLDATALOAD PUSH2 0x27DC DUP2 PUSH2 0x249E JUMP JUMPDEST SWAP3 POP PUSH1 0x40 DUP6 ADD CALLDATALOAD SWAP2 POP PUSH1 0x60 DUP6 ADD CALLDATALOAD PUSH8 0xFFFFFFFFFFFFFFFF DUP2 GT ISZERO PUSH2 0x27FE JUMPI PUSH0 PUSH0 REVERT JUMPDEST DUP6 ADD PUSH1 0x1F DUP2 ADD DUP8 SGT PUSH2 0x280E JUMPI PUSH0 PUSH0 REVERT JUMPDEST DUP1 CALLDATALOAD PUSH8 0xFFFFFFFFFFFFFFFF DUP2 GT ISZERO PUSH2 0x2828 JUMPI PUSH2 0x2828 PUSH2 0x279A JUMP JUMPDEST PUSH1 0x40 MLOAD PUSH1 0x1F DUP3 ADD PUSH1 0x1F NOT SWAP1 DUP2 AND PUSH1 0x3F ADD AND DUP2 ADD PUSH8 0xFFFFFFFFFFFFFFFF DUP2 GT DUP3 DUP3 LT OR ISZERO PUSH2 0x2857 JUMPI PUSH2 0x2857 PUSH2 0x279A JUMP JUMPDEST PUSH1 0x40 MSTORE DUP2 DUP2 MSTORE DUP3 DUP3 ADD PUSH1 0x20 ADD DUP10 LT ISZERO PUSH2 0x286E JUMPI PUSH0 PUSH0 REVERT JUMPDEST DUP2 PUSH1 0x20 DUP5 ADD PUSH1 0x20 DUP4 ADD CALLDATACOPY PUSH0 PUSH1 0x20 DUP4 DUP4 ADD ADD MSTORE DUP1 SWAP4 POP POP POP POP SWAP3 SWAP6 SWAP2 SWAP5 POP SWAP3 POP JUMP JUMPDEST PUSH0 PUSH0 PUSH1 0x40 DUP4 DUP6 SUB SLT ISZERO PUSH2 0x28A0 JUMPI PUSH0 PUSH0 REVERT JUMPDEST DUP3 CALLDATALOAD PUSH2 0x28AB DUP2 PUSH2 0x249E JUMP JUMPDEST SWAP2 POP PUSH1 0x20 DUP4 ADD CALLDATALOAD PUSH2 0x26A3 DUP2 PUSH2 0x249E JUMP JUMPDEST PUSH1 0x1 DUP2 DUP2 SHR SWAP1 DUP3 AND DUP1 PUSH2 0x28CF JUMPI PUSH1 0x7F DUP3 AND SWAP2 POP JUMPDEST PUSH1 0x20 DUP3 LT DUP2 SUB PUSH2 0x28ED JUMPI PUSH4 0x4E487B71 PUSH1 0xE0 SHL PUSH0 MSTORE PUSH1 0x22 PUSH1 0x4 MSTORE PUSH1 0x24 PUSH0 REVERT JUMPDEST POP SWAP2 SWAP1 POP JUMP JUMPDEST PUSH4 0x4E487B71 PUSH1 0xE0 SHL PUSH0 MSTORE PUSH1 0x11 PUSH1 0x4 MSTORE PUSH1 0x24 PUSH0 REVERT JUMPDEST DUP1 DUP3 MUL DUP2 ISZERO DUP3 DUP3 DIV DUP5 EQ OR PUSH2 0x746 JUMPI PUSH2 0x746 PUSH2 0x28F3 JUMP JUMPDEST PUSH0 DUP3 PUSH2 0x2938 JUMPI PUSH4 0x4E487B71 PUSH1 0xE0 SHL PUSH0 MSTORE PUSH1 0x12 PUSH1 0x4 MSTORE PUSH1 0x24 PUSH0 REVERT JUMPDEST POP DIV SWAP1 JUMP JUMPDEST PUSH0 DUP2 SLOAD PUSH2 0x2949 DUP2 PUSH2 0x28BB JUMP JUMPDEST DUP1 DUP6 MSTORE PUSH1 0x1 DUP3 AND DUP1 ISZERO PUSH2 0x2963 JUMPI PUSH1 0x1 DUP2 EQ PUSH2 0x297F JUMPI PUSH2 0x29B3 JUMP JUMPDEST PUSH1 0xFF NOT DUP4 AND PUSH1 0x20 DUP8 ADD MSTORE PUSH1 0x20 DUP3 ISZERO ISZERO PUSH1 0x5 SHL DUP8 ADD ADD SWAP4 POP PUSH2 0x29B3 JUMP JUMPDEST DUP5 PUSH0 MSTORE PUSH1 0x20 PUSH0 KECCAK256 PUSH0 JUMPDEST DUP4 DUP2 LT ISZERO PUSH2 0x29AA JUMPI DUP2 SLOAD PUSH1 0x20 DUP3 DUP11 ADD ADD MSTORE PUSH1 0x1 DUP3 ADD SWAP2 POP PUSH1 0x20 DUP2 ADD SWAP1 POP PUSH2 0x2988 JUMP JUMPDEST DUP8 ADD PUSH1 0x20 ADD SWAP5 POP POP JUMPDEST POP POP POP SWAP3 SWAP2 POP POP JUMP JUMPDEST PUSH1 0x60 DUP2 MSTORE PUSH0 PUSH2 0x29CE PUSH1 0x60 DUP4 ADD DUP7 PUSH2 0x293D JUMP JUMPDEST SWAP4 ISZERO ISZERO PUSH1 0x20 DUP4 ADD MSTORE POP PUSH1 0x40 ADD MSTORE SWAP2 SWAP1 POP JUMP JUMPDEST PUSH4 0x4E487B71 PUSH1 0xE0 SHL PUSH0 MSTORE PUSH1 0x32 PUSH1 0x4 MSTORE PUSH1 0x24 PUSH0 REVERT JUMPDEST PUSH1 0x1F DUP3 GT ISZERO PUSH2 0xAE7 JUMPI DUP1 PUSH0 MSTORE PUSH1 0x20 PUSH0 KECCAK256 PUSH1 0x1F DUP5 ADD PUSH1 0x5 SHR DUP2 ADD PUSH1 0x20 DUP6 LT ISZERO PUSH2 0x2A19 JUMPI POP DUP1 JUMPDEST PUSH1 0x1F DUP5 ADD PUSH1 0x5 SHR DUP3 ADD SWAP2 POP JUMPDEST DUP2 DUP2 LT ISZERO PUSH2 0x1C51 JUMPI PUSH0 DUP2 SSTORE PUSH1 0x1 ADD PUSH2 0x2A25 JUMP JUMPDEST PUSH8 0xFFFFFFFFFFFFFFFF DUP4 GT ISZERO PUSH2 0x2A50 JUMPI PUSH2 0x2A50 PUSH2 0x279A JUMP JUMPDEST PUSH2 0x2A64 DUP4 PUSH2 0x2A5E DUP4 SLOAD PUSH2 0x28BB JUMP JUMPDEST DUP4 PUSH2 0x29F4 JUMP JUMPDEST PUSH0 PUSH1 0x1F DUP5 GT PUSH1 0x1 DUP2 EQ PUSH2 0x2A95 JUMPI PUSH0 DUP6 ISZERO PUSH2 0x2A7E JUMPI POP DUP4 DUP3 ADD CALLDATALOAD JUMPDEST PUSH0 NOT PUSH1 0x3 DUP8 SWAP1 SHL SHR NOT AND PUSH1 0x1 DUP7 SWAP1 SHL OR DUP4 SSTORE PUSH2 0x1C51 JUMP JUMPDEST PUSH0 DUP4 DUP2 MSTORE PUSH1 0x20 DUP2 KECCAK256 PUSH1 0x1F NOT DUP8 AND SWAP2 JUMPDEST DUP3 DUP2 LT ISZERO PUSH2 0x2AC4 JUMPI DUP7 DUP6 ADD CALLDATALOAD DUP3 SSTORE PUSH1 0x20 SWAP5 DUP6 ADD SWAP5 PUSH1 0x1 SWAP1 SWAP3 ADD SWAP2 ADD PUSH2 0x2AA4 JUMP JUMPDEST POP DUP7 DUP3 LT ISZERO PUSH2 0x2AE0 JUMPI PUSH0 NOT PUSH1 0xF8 DUP9 PUSH1 0x3 SHL AND SHR NOT DUP5 DUP8 ADD CALLDATALOAD AND DUP2 SSTORE JUMPDEST POP POP PUSH1 0x1 DUP6 PUSH1 0x1 SHL ADD DUP4 SSTORE POP POP POP POP POP JUMP JUMPDEST DUP2 DUP4 MSTORE DUP2 DUP2 PUSH1 0x20 DUP6 ADD CALLDATACOPY POP PUSH0 DUP3 DUP3 ADD PUSH1 0x20 SWAP1 DUP2 ADD SWAP2 SWAP1 SWAP2 MSTORE PUSH1 0x1F SWAP1 SWAP2 ADD PUSH1 0x1F NOT AND SWAP1 SWAP2 ADD ADD SWAP1 JUMP JUMPDEST PUSH1 0x60 DUP2 MSTORE PUSH0 PUSH2 0x2B2D PUSH1 0x60 DUP4 ADD DUP7 DUP9 PUSH2 0x2AF2 JUMP JUMPDEST SWAP4 ISZERO ISZERO PUSH1 0x20 DUP4 ADD MSTORE POP PUSH1 0x40 ADD MSTORE SWAP3 SWAP2 POP POP JUMP JUMPDEST DUP4 ISZERO ISZERO DUP2 MSTORE PUSH1 0x40 PUSH1 0x20 DUP3 ADD MSTORE PUSH0 PUSH2 0x2B5B PUSH1 0x40 DUP4 ADD DUP5 DUP7 PUSH2 0x2AF2 JUMP JUMPDEST SWAP6 SWAP5 POP POP POP POP POP JUMP JUMPDEST DUP3 ISZERO ISZERO DUP2 MSTORE PUSH1 0x40 PUSH1 0x20 DUP3 ADD MSTORE PUSH0 PUSH2 0x181F PUSH1 0x40 DUP4 ADD DUP5 PUSH2 0x293D JUMP JUMPDEST DUP1 DUP3 ADD DUP1 DUP3 GT ISZERO PUSH2 0x746 JUMPI PUSH2 0x746 PUSH2 0x28F3 JUMP JUMPDEST PUSH0 PUSH1 0x1 DUP3 ADD PUSH2 0x2BA2 JUMPI PUSH2 0x2BA2 PUSH2 0x28F3 JUMP JUMPDEST POP PUSH1 0x1 ADD SWAP1 JUMP JUMPDEST DUP2 DUP2 SUB DUP2 DUP2 GT ISZERO PUSH2 0x746 JUMPI PUSH2 0x746 PUSH2 0x28F3 JUMP JUMPDEST PUSH0 DUP2 MLOAD DUP1 PUSH1 0x20 DUP5 ADD DUP6 MCOPY PUSH0 SWAP4 ADD SWAP3 DUP4 MSTORE POP SWAP1 SWAP2 SWAP1 POP JUMP JUMPDEST PUSH0 PUSH2 0x2BE7 PUSH2 0x2BE1 DUP4 DUP7 PUSH2 0x2BBC JUMP JUMPDEST DUP5 PUSH2 0x2BBC JUMP JUMPDEST PUSH5 0x173539B7B7 PUSH1 0xD9 SHL DUP2 MSTORE PUSH1 0x5 ADD SWAP5 SWAP4 POP POP POP POP JUMP JUMPDEST DUP2 MLOAD PUSH8 0xFFFFFFFFFFFFFFFF DUP2 GT ISZERO PUSH2 0x2C17 JUMPI PUSH2 0x2C17 PUSH2 0x279A JUMP JUMPDEST PUSH2 0x2C2B DUP2 PUSH2 0x2C25 DUP5 SLOAD PUSH2 0x28BB JUMP JUMPDEST DUP5 PUSH2 0x29F4 JUMP JUMPDEST PUSH1 0x20 PUSH1 0x1F DUP3 GT PUSH1 0x1 DUP2 EQ PUSH2 0x2C5D JUMPI PUSH0 DUP4 ISZERO PUSH2 0x2C46 JUMPI POP DUP5 DUP3 ADD MLOAD JUMPDEST PUSH0 NOT PUSH1 0x3 DUP6 SWAP1 SHL SHR NOT AND PUSH1 0x1 DUP5 SWAP1 SHL OR DUP5 SSTORE PUSH2 0x1C51 JUMP JUMPDEST PUSH0 DUP5 DUP2 MSTORE PUSH1 0x20 DUP2 KECCAK256 PUSH1 0x1F NOT DUP6 AND SWAP2 JUMPDEST DUP3 DUP2 LT ISZERO PUSH2 0x2C8C JUMPI DUP8 DUP6 ADD MLOAD DUP3 SSTORE PUSH1 0x20 SWAP5 DUP6 ADD SWAP5 PUSH1 0x1 SWAP1 SWAP3 ADD SWAP2 ADD PUSH2 0x2C6C JUMP JUMPDEST POP DUP5 DUP3 LT ISZERO PUSH2 0x2CA9 JUMPI DUP7 DUP5 ADD MLOAD PUSH0 NOT PUSH1 0x3 DUP8 SWAP1 SHL PUSH1 0xF8 AND SHR NOT AND DUP2 SSTORE JUMPDEST POP POP POP POP PUSH1 0x1 SWAP1 DUP2 SHL ADD SWAP1 SSTORE POP JUMP JUMPDEST PUSH1 0x60 DUP2 MSTORE PUSH0 PUSH2 0x2CCA PUSH1 0x60 DUP4 ADD DUP7 PUSH2 0x2447 JUMP JUMPDEST DUP3 DUP2 SUB PUSH1 0x20 DUP5 ADD MSTORE PUSH2 0x2CDC DUP2 DUP7 PUSH2 0x2447 JUMP JUMPDEST SWAP2 POP POP DUP3 PUSH1 0x40 DUP4 ADD MSTORE SWAP5 SWAP4 POP POP POP POP JUMP JUMPDEST PUSH1 0x1 PUSH1 0x1 PUSH1 0xA0 SHL SUB DUP6 DUP2 AND DUP3 MSTORE DUP5 AND PUSH1 0x20 DUP3 ADD MSTORE PUSH1 0x40 DUP2 ADD DUP4 SWAP1 MSTORE PUSH1 0x80 PUSH1 0x60 DUP3 ADD DUP2 SWAP1 MSTORE PUSH0 SWAP1 PUSH2 0x2D1F SWAP1 DUP4 ADD DUP5 PUSH2 0x2447 JUMP JUMPDEST SWAP7 SWAP6 POP POP POP POP POP POP JUMP JUMPDEST PUSH0 PUSH1 0x20 DUP3 DUP5 SUB SLT ISZERO PUSH2 0x2D39 JUMPI PUSH0 PUSH0 REVERT JUMPDEST DUP2 MLOAD PUSH2 0x2440 DUP2 PUSH2 0x2410 JUMP JUMPDEST PUSH4 0x4E487B71 PUSH1 0xE0 SHL PUSH0 MSTORE PUSH1 0x31 PUSH1 0x4 MSTORE PUSH1 0x24 PUSH0 REVERT INVALID LOG2 PUSH5 0x6970667358 0x22 SLT KECCAK256 DUP4 0xC1 SWAP14 0xC7 SIGNEXTEND 0xBA SLT CHAINID SWAP7 DUP4 0xDB 0xDD TSTORE 0x25 0xF6 0xCF SELFDESTRUCT 0x4E 0x4B 0xCC JUMPDEST COINBASE DUP10 0xB1 0xCE DUP2 SIGNEXTEND 0x2E DUP6 INVALID SWAP10 SWAP6 PUSH5 0x736F6C6343 STOP ADDMOD SHL STOP CALLER "},"methodIdentifiers":{"CARDS_PER_DECK()":"4f80f1c4","addDeck(string,string,string,bool,bool,uint256)":"2c7667b7","approve(address,uint256)":"095ea7b3","balanceOf(address)":"70a08231","deckCount()":"22872f29","decks(uint256)":"a090195d","getApproved(uint256)":"081812fc","isApprovedForAll(address,address)":"e985e9c5","maxPerTx()":"f968adbe","maxPerWallet()":"453c2310","mintFromDeck(uint256,uint256)":"bfd1e249","mintedByWalletInDeck(uint256,address)":"30b82402","name()":"06fdde03","owner()":"8da5cb5b","ownerOf(uint256)":"6352211e","pause()":"8456cb59","paused()":"5c975abb","renounceOwnership()":"715018a6","royaltyInfo(uint256,uint256)":"2a55205a","safeTransferFrom(address,address,uint256)":"42842e0e","safeTransferFrom(address,address,uint256,bytes)":"b88d4fde","setApprovalForAll(address,bool)":"a22cb465","setDeckActive(uint256,bool)":"2f32e2aa","setDeckBaseURI(uint256,string)":"71da92d7","setDeckPlaceholder(uint256,string)":"91d7c67f","setDeckPrice(uint256,uint256)":"c7efdd34","setDeckReveal(uint256,bool)":"95d44510","setLimits(uint256,uint256)":"c4590d3f","supportsInterface(bytes4)":"01ffc9a7","symbol()":"95d89b41","tokenByIndex(uint256)":"4f6ccce7","tokenNumberInDeck(uint256)":"7d1ac3c8","tokenOfOwnerByIndex(address,uint256)":"2f745c59","tokenToDeck(uint256)":"625fcd6c","tokenURI(uint256)":"c87b56dd","totalSupply()":"18160ddd","transferFrom(address,address,uint256)":"23b872dd","transferOwnership(address)":"f2fde38b","unpause()":"3f4ba83a","withdraw(address)":"51cff8d9"}}}}}